{
  "_format": "hh-sol-artifact-1",
  "contractName": "NFTMarket",
  "sourceName": "contracts/Market.sol",
  "abi": [
    {
      "anonymous": false,
      "inputs": [
        {
          "indexed": true,
          "internalType": "uint256",
          "name": "itemId",
          "type": "uint256"
        },
        {
          "indexed": true,
          "internalType": "address",
          "name": "nftContract",
          "type": "address"
        },
        {
          "indexed": true,
          "internalType": "uint256",
          "name": "tokenId",
          "type": "uint256"
        },
        {
          "indexed": false,
          "internalType": "address",
          "name": "seller",
          "type": "address"
        },
        {
          "indexed": false,
          "internalType": "address",
          "name": "owner",
          "type": "address"
        },
        {
          "indexed": false,
          "internalType": "uint256",
          "name": "price",
          "type": "uint256"
        },
        {
          "indexed": false,
          "internalType": "bool",
          "name": "sold",
          "type": "bool"
        }
      ],
      "name": "MarketItemCreated",
      "type": "event"
    },
    {
      "anonymous": false,
      "inputs": [
        {
          "indexed": true,
          "internalType": "uint256",
          "name": "itemId",
          "type": "uint256"
        },
        {
          "indexed": true,
          "internalType": "address",
          "name": "nftContract",
          "type": "address"
        },
        {
          "indexed": true,
          "internalType": "uint256",
          "name": "tokenId",
          "type": "uint256"
        },
        {
          "indexed": false,
          "internalType": "address",
          "name": "seller",
          "type": "address"
        },
        {
          "indexed": false,
          "internalType": "address",
          "name": "owner",
          "type": "address"
        },
        {
          "indexed": false,
          "internalType": "uint256",
          "name": "totalVolume",
          "type": "uint256"
        }
      ],
      "name": "MarketItemSaled",
      "type": "event"
    },
    {
      "inputs": [
        {
          "internalType": "address",
          "name": "nftContract",
          "type": "address"
        },
        {
          "internalType": "uint256",
          "name": "tokenId",
          "type": "uint256"
        },
        {
          "internalType": "uint256",
          "name": "price",
          "type": "uint256"
        }
      ],
      "name": "createMarketItem",
      "outputs": [],
      "stateMutability": "payable",
      "type": "function"
    },
    {
      "inputs": [
        {
          "internalType": "address",
          "name": "nftContract",
          "type": "address"
        },
        {
          "internalType": "uint256",
          "name": "itemId",
          "type": "uint256"
        },
        {
          "internalType": "address",
          "name": "tokenContract",
          "type": "address"
        }
      ],
      "name": "createMarketSale",
      "outputs": [],
      "stateMutability": "payable",
      "type": "function"
    },
    {
      "inputs": [],
      "name": "fetchItemsCreated",
      "outputs": [
        {
          "components": [
            {
              "internalType": "uint256",
              "name": "itemId",
              "type": "uint256"
            },
            {
              "internalType": "address",
              "name": "nftContract",
              "type": "address"
            },
            {
              "internalType": "uint256",
              "name": "tokenId",
              "type": "uint256"
            },
            {
              "internalType": "address payable",
              "name": "seller",
              "type": "address"
            },
            {
              "internalType": "address payable",
              "name": "owner",
              "type": "address"
            },
            {
              "internalType": "uint256",
              "name": "price",
              "type": "uint256"
            },
            {
              "internalType": "bool",
              "name": "sold",
              "type": "bool"
            }
          ],
          "internalType": "struct NFTMarket.MarketItem[]",
          "name": "",
          "type": "tuple[]"
        }
      ],
      "stateMutability": "view",
      "type": "function"
    },
    {
      "inputs": [],
      "name": "fetchMarketItems",
      "outputs": [
        {
          "components": [
            {
              "internalType": "uint256",
              "name": "itemId",
              "type": "uint256"
            },
            {
              "internalType": "address",
              "name": "nftContract",
              "type": "address"
            },
            {
              "internalType": "uint256",
              "name": "tokenId",
              "type": "uint256"
            },
            {
              "internalType": "address payable",
              "name": "seller",
              "type": "address"
            },
            {
              "internalType": "address payable",
              "name": "owner",
              "type": "address"
            },
            {
              "internalType": "uint256",
              "name": "price",
              "type": "uint256"
            },
            {
              "internalType": "bool",
              "name": "sold",
              "type": "bool"
            }
          ],
          "internalType": "struct NFTMarket.MarketItem[]",
          "name": "",
          "type": "tuple[]"
        }
      ],
      "stateMutability": "view",
      "type": "function"
    },
    {
      "inputs": [],
      "name": "fetchMyNFTs",
      "outputs": [
        {
          "components": [
            {
              "internalType": "uint256",
              "name": "itemId",
              "type": "uint256"
            },
            {
              "internalType": "address",
              "name": "nftContract",
              "type": "address"
            },
            {
              "internalType": "uint256",
              "name": "tokenId",
              "type": "uint256"
            },
            {
              "internalType": "address payable",
              "name": "seller",
              "type": "address"
            },
            {
              "internalType": "address payable",
              "name": "owner",
              "type": "address"
            },
            {
              "internalType": "uint256",
              "name": "price",
              "type": "uint256"
            },
            {
              "internalType": "bool",
              "name": "sold",
              "type": "bool"
            }
          ],
          "internalType": "struct NFTMarket.MarketItem[]",
          "name": "",
          "type": "tuple[]"
        }
      ],
      "stateMutability": "view",
      "type": "function"
    },
    {
      "inputs": [],
      "name": "getListingPrice",
      "outputs": [
        {
          "internalType": "uint256",
          "name": "",
          "type": "uint256"
        }
      ],
      "stateMutability": "view",
      "type": "function"
    },
    {
      "inputs": [
        {
          "internalType": "contract ERC20",
          "name": "_marketToken",
          "type": "address"
        }
      ],
      "name": "initialize",
      "outputs": [],
      "stateMutability": "nonpayable",
      "type": "function"
    },
    {
      "inputs": [],
      "name": "marketToken",
      "outputs": [
        {
          "internalType": "contract ERC20",
          "name": "",
          "type": "address"
        }
      ],
      "stateMutability": "view",
      "type": "function"
    },
    {
      "inputs": [],
      "name": "totalVolume",
      "outputs": [
        {
          "internalType": "uint256",
          "name": "",
          "type": "uint256"
        }
      ],
      "stateMutability": "view",
      "type": "function"
    },
    {
      "inputs": [],
      "name": "wallet",
      "outputs": [
        {
          "internalType": "address",
          "name": "",
          "type": "address"
        }
      ],
      "stateMutability": "view",
      "type": "function"
    }
  ],
  "bytecode": "0x608060405234801561001057600080fd5b50610fc1806100206000396000f3fe6080604052600436106100915760003560e01c80635f81a57c116100595780635f81a57c14610142578063ad48d61114610158578063ad4b6c5214610178578063c4d66de81461018b578063f064c32e146101ab57600080fd5b80630f08efe01461009657806312e85585146100c1578063202e3740146100e0578063521eb273146100f557806358eb2df51461012d575b600080fd5b3480156100a257600080fd5b506100ab6101c0565b6040516100b89190610e7f565b60405180910390f35b3480156100cd57600080fd5b506036545b6040519081526020016100b8565b3480156100ec57600080fd5b506100ab610369565b34801561010157600080fd5b50603a54610115906001600160a01b031681565b6040516001600160a01b0390911681526020016100b8565b61014061013b366004610e08565b610550565b005b34801561014e57600080fd5b506100d260385481565b34801561016457600080fd5b50603954610115906001600160a01b031681565b610140610186366004610dc7565b6107ec565b34801561019757600080fd5b506101406101a6366004610e63565b610ab8565b3480156101b757600080fd5b506100ab610ba4565b606060006101cd60335490565b905060006101da60345490565b6033546101e79190610f2b565b90506000808267ffffffffffffffff81111561021357634e487b7160e01b600052604160045260246000fd5b60405190808252806020026020018201604052801561024c57816020015b610239610d8b565b8152602001906001900390816102315790505b50905060005b8481101561036057600060378161026a846001610f13565b81526020810191909152604001600020600401546001600160a01b0316141561034e57600061029a826001610f13565b600081815260376020908152604091829020825160e0810184528154815260018201546001600160a01b039081169382019390935260028201549381019390935260038101548216606084015260048101549091166080830152600581015460a0830152600681015460ff16151560c083015285519293509185908790811061033357634e487b7160e01b600052603260045260246000fd5b6020908102919091010152610349600186610f13565b945050505b8061035881610f42565b915050610252565b50949350505050565b6060600061037660335490565b905060008060005b838110156103d9573360376000610396846001610f13565b81526020810191909152604001600020600401546001600160a01b031614156103c7576103c4600184610f13565b92505b806103d181610f42565b91505061037e565b5060008267ffffffffffffffff81111561040357634e487b7160e01b600052604160045260246000fd5b60405190808252806020026020018201604052801561043c57816020015b610429610d8b565b8152602001906001900390816104215790505b50905060005b8481101561036057336037600061045a846001610f13565b81526020810191909152604001600020600401546001600160a01b0316141561053e57600061048a826001610f13565b600081815260376020908152604091829020825160e0810184528154815260018201546001600160a01b039081169382019390935260028201549381019390935260038101548216606084015260048101549091166080830152600581015460a0830152600681015460ff16151560c083015285519293509185908790811061052357634e487b7160e01b600052603260045260246000fd5b6020908102919091010152610539600186610f13565b945050505b8061054881610f42565b915050610442565b600260015414156105a85760405162461bcd60e51b815260206004820152601f60248201527f5265656e7472616e637947756172643a207265656e7472616e742063616c6c0060448201526064015b60405180910390fd5b6002600155806105fa5760405162461bcd60e51b815260206004820152601c60248201527f5072696365206d757374206265206174206c6561737420312077656900000000604482015260640161059f565b60365434146106575760405162461bcd60e51b8152602060048201526024808201527f5072696365206d75737420626520657175616c20746f206c697374696e6720706044820152637269636560e01b606482015260840161059f565b610665603380546001019055565b600061067060335490565b6040805160e0810182528281526001600160a01b0387811660208084018281528486018a8152336060870181815260006080890181815260a08a018e815260c08b018381528d84526037909852918b902099518a55945160018a018054918a166001600160a01b0319928316179055935160028a015590516003890180549189169185169190911790559251600480890180549290981691909316179095559051600586015590516006909401805494151560ff199095169490941790935592516323b872dd60e01b81529182015230602482015260448101869052919250906323b872dd90606401600060405180830381600087803b15801561077357600080fd5b505af1158015610787573d6000803e3d6000fd5b505060408051338152600060208201819052818301879052606082015290518693506001600160a01b038816925084917f045dfa01dcba2b36aba1d3dc4a874f4b0c5d2fbeb8d2c4b34a7d88c8d8f929d1919081900360800190a45050600180555050565b6002600154141561083f5760405162461bcd60e51b815260206004820152601f60248201527f5265656e7472616e637947756172643a207265656e7472616e742063616c6c00604482015260640161059f565b6002600155600082815260376020526040902060060154829060ff161561089f5760405162461bcd60e51b81526020600482015260146024820152734974656d206973206e6f7420666f722073616c6560601b604482015260640161059f565b6000838152603760205260409020600581015460029091015434821461092f576040805162461bcd60e51b81526020600482015260248101919091527f506c65617365207375626d6974207468652061736b696e67207072696365206960448201527f6e206f7264657220746f20636f6d706c65746520746865207075726368617365606482015260840161059f565b60405163095ea7b360e01b815230600482015266038d7ea4c68000602482015273383304c7ef78090612df95edb8fb242409d9341b9063095ea7b390604401602060405180830381600087803b15801561098857600080fd5b505af115801561099c573d6000803e3d6000fd5b505050506040513d601f19601f820116820180604052508101906109c09190610e3c565b506040516323b872dd60e01b815233600482015230602482015266038d7ea4c68000604482015273383304c7ef78090612df95edb8fb242409d9341b906323b872dd90606401602060405180830381600087803b158015610a2057600080fd5b505af1158015610a34573d6000803e3d6000fd5b505050506040513d601f19601f82011682018060405250810190610a589190610e3c565b50603854604080513081523360208201529081019190915281906001600160a01b0388169087907ff508d7e0c4948bef562fa93bd0f424ce063d1def0ecf2ea0cc62bb2ec04198399060600160405180910390a450506001805550505050565b600054610100900460ff1680610ad1575060005460ff16155b610b345760405162461bcd60e51b815260206004820152602e60248201527f496e697469616c697a61626c653a20636f6e747261637420697320616c72656160448201526d191e481a5b9a5d1a585b1a5e995960921b606482015260840161059f565b600054610100900460ff16158015610b56576000805461ffff19166101011790555b60358054336001600160a01b03199182161790915565e35fa931a0006036556000603855603980549091166001600160a01b0384161790558015610ba0576000805461ff00191690555b5050565b60606000610bb160335490565b905060008060005b83811015610c14573360376000610bd1846001610f13565b81526020810191909152604001600020600301546001600160a01b03161415610c0257610bff600184610f13565b92505b80610c0c81610f42565b915050610bb9565b5060008267ffffffffffffffff811115610c3e57634e487b7160e01b600052604160045260246000fd5b604051908082528060200260200182016040528015610c7757816020015b610c64610d8b565b815260200190600190039081610c5c5790505b50905060005b84811015610360573360376000610c95846001610f13565b81526020810191909152604001600020600301546001600160a01b03161415610d79576000610cc5826001610f13565b600081815260376020908152604091829020825160e0810184528154815260018201546001600160a01b039081169382019390935260028201549381019390935260038101548216606084015260048101549091166080830152600581015460a0830152600681015460ff16151560c0830152855192935091859087908110610d5e57634e487b7160e01b600052603260045260246000fd5b6020908102919091010152610d74600186610f13565b945050505b80610d8381610f42565b915050610c7d565b6040805160e081018252600080825260208201819052918101829052606081018290526080810182905260a0810182905260c081019190915290565b600080600060608486031215610ddb578283fd5b8335610de681610f73565b9250602084013591506040840135610dfd81610f73565b809150509250925092565b600080600060608486031215610e1c578283fd5b8335610e2781610f73565b95602085013595506040909401359392505050565b600060208284031215610e4d578081fd5b81518015158114610e5c578182fd5b9392505050565b600060208284031215610e74578081fd5b8135610e5c81610f73565b602080825282518282018190526000919060409081850190868401855b82811015610f0657815180518552868101516001600160a01b039081168887015286820151878701526060808301518216908701526080808301519091169086015260a0808201519086015260c09081015115159085015260e09093019290850190600101610e9c565b5091979650505050505050565b60008219821115610f2657610f26610f5d565b500190565b600082821015610f3d57610f3d610f5d565b500390565b6000600019821415610f5657610f56610f5d565b5060010190565b634e487b7160e01b600052601160045260246000fd5b6001600160a01b0381168114610f8857600080fd5b5056fea26469706673582212206e5f328948a606a0067e4275d9260f2d22c1e53619a1b5a233461000b1b40c3e64736f6c63430008040033",
  "linkReferences": {},
  "deployedLinkReferences": {}
}