{
  "_format": "hh-sol-artifact-1",
  "contractName": "NFTMarket",
  "sourceName": "contracts/Market.sol",
  "abi": [
    {
      "anonymous": false,
      "inputs": [
        {
          "indexed": true,
          "internalType": "uint256",
          "name": "itemId",
          "type": "uint256"
        },
        {
          "indexed": true,
          "internalType": "address",
          "name": "nftContract",
          "type": "address"
        },
        {
          "indexed": true,
          "internalType": "uint256",
          "name": "tokenId",
          "type": "uint256"
        },
        {
          "indexed": false,
          "internalType": "address",
          "name": "seller",
          "type": "address"
        },
        {
          "indexed": false,
          "internalType": "address",
          "name": "owner",
          "type": "address"
        },
        {
          "indexed": false,
          "internalType": "uint256",
          "name": "price",
          "type": "uint256"
        },
        {
          "indexed": false,
          "internalType": "bool",
          "name": "sold",
          "type": "bool"
        }
      ],
      "name": "MarketItemCreated",
      "type": "event"
    },
    {
      "anonymous": false,
      "inputs": [
        {
          "indexed": true,
          "internalType": "uint256",
          "name": "itemId",
          "type": "uint256"
        },
        {
          "indexed": true,
          "internalType": "address",
          "name": "nftContract",
          "type": "address"
        },
        {
          "indexed": true,
          "internalType": "uint256",
          "name": "tokenId",
          "type": "uint256"
        },
        {
          "indexed": false,
          "internalType": "address",
          "name": "seller",
          "type": "address"
        },
        {
          "indexed": false,
          "internalType": "address",
          "name": "owner",
          "type": "address"
        },
        {
          "indexed": false,
          "internalType": "uint256",
          "name": "totalVolume",
          "type": "uint256"
        }
      ],
      "name": "MarketItemSaled",
      "type": "event"
    },
    {
      "inputs": [
        {
          "internalType": "address",
          "name": "nftContract",
          "type": "address"
        },
        {
          "internalType": "uint256",
          "name": "tokenId",
          "type": "uint256"
        },
        {
          "internalType": "uint256",
          "name": "price",
          "type": "uint256"
        }
      ],
      "name": "createMarketItem",
      "outputs": [],
      "stateMutability": "payable",
      "type": "function"
    },
    {
      "inputs": [
        {
          "internalType": "address",
          "name": "nftContract",
          "type": "address"
        },
        {
          "internalType": "uint256",
          "name": "itemId",
          "type": "uint256"
        }
      ],
      "name": "createMarketSale",
      "outputs": [],
      "stateMutability": "payable",
      "type": "function"
    },
    {
      "inputs": [],
      "name": "fetchItemsCreated",
      "outputs": [
        {
          "components": [
            {
              "internalType": "uint256",
              "name": "itemId",
              "type": "uint256"
            },
            {
              "internalType": "address",
              "name": "nftContract",
              "type": "address"
            },
            {
              "internalType": "uint256",
              "name": "tokenId",
              "type": "uint256"
            },
            {
              "internalType": "address payable",
              "name": "seller",
              "type": "address"
            },
            {
              "internalType": "address payable",
              "name": "owner",
              "type": "address"
            },
            {
              "internalType": "uint256",
              "name": "price",
              "type": "uint256"
            },
            {
              "internalType": "bool",
              "name": "sold",
              "type": "bool"
            }
          ],
          "internalType": "struct NFTMarket.MarketItem[]",
          "name": "",
          "type": "tuple[]"
        }
      ],
      "stateMutability": "view",
      "type": "function"
    },
    {
      "inputs": [],
      "name": "fetchMarketItems",
      "outputs": [
        {
          "components": [
            {
              "internalType": "uint256",
              "name": "itemId",
              "type": "uint256"
            },
            {
              "internalType": "address",
              "name": "nftContract",
              "type": "address"
            },
            {
              "internalType": "uint256",
              "name": "tokenId",
              "type": "uint256"
            },
            {
              "internalType": "address payable",
              "name": "seller",
              "type": "address"
            },
            {
              "internalType": "address payable",
              "name": "owner",
              "type": "address"
            },
            {
              "internalType": "uint256",
              "name": "price",
              "type": "uint256"
            },
            {
              "internalType": "bool",
              "name": "sold",
              "type": "bool"
            }
          ],
          "internalType": "struct NFTMarket.MarketItem[]",
          "name": "",
          "type": "tuple[]"
        }
      ],
      "stateMutability": "view",
      "type": "function"
    },
    {
      "inputs": [],
      "name": "fetchMyNFTs",
      "outputs": [
        {
          "components": [
            {
              "internalType": "uint256",
              "name": "itemId",
              "type": "uint256"
            },
            {
              "internalType": "address",
              "name": "nftContract",
              "type": "address"
            },
            {
              "internalType": "uint256",
              "name": "tokenId",
              "type": "uint256"
            },
            {
              "internalType": "address payable",
              "name": "seller",
              "type": "address"
            },
            {
              "internalType": "address payable",
              "name": "owner",
              "type": "address"
            },
            {
              "internalType": "uint256",
              "name": "price",
              "type": "uint256"
            },
            {
              "internalType": "bool",
              "name": "sold",
              "type": "bool"
            }
          ],
          "internalType": "struct NFTMarket.MarketItem[]",
          "name": "",
          "type": "tuple[]"
        }
      ],
      "stateMutability": "view",
      "type": "function"
    },
    {
      "inputs": [],
      "name": "getListingPrice",
      "outputs": [
        {
          "internalType": "uint256",
          "name": "",
          "type": "uint256"
        }
      ],
      "stateMutability": "view",
      "type": "function"
    },
    {
      "inputs": [],
      "name": "initialize",
      "outputs": [],
      "stateMutability": "nonpayable",
      "type": "function"
    },
    {
      "inputs": [],
      "name": "totalVolume",
      "outputs": [
        {
          "internalType": "uint256",
          "name": "",
          "type": "uint256"
        }
      ],
      "stateMutability": "view",
      "type": "function"
    }
  ],
  "bytecode": "0x608060405234801561001057600080fd5b50610e88806100206000396000f3fe60806040526004361061007b5760003560e01c80635f81a57c1161004e5780635f81a57c146100f45780638129fc1c1461010a578063c23b139e1461011f578063f064c32e1461013257600080fd5b80630f08efe01461008057806312e85585146100ab578063202e3740146100ca57806358eb2df5146100df575b600080fd5b34801561008c57600080fd5b50610095610147565b6040516100a29190610d5e565b60405180910390f35b3480156100b757600080fd5b506036545b6040519081526020016100a2565b3480156100d657600080fd5b506100956102f0565b6100f26100ed366004610d2c565b6104d7565b005b34801561010057600080fd5b506100bc60385481565b34801561011657600080fd5b506100f2610777565b6100f261012d366004610d03565b61084c565b34801561013e57600080fd5b50610095610ac4565b6060600061015460335490565b9050600061016160345490565b60335461016e9190610e0a565b90506000808267ffffffffffffffff81111561019a57634e487b7160e01b600052604160045260246000fd5b6040519080825280602002602001820160405280156101d357816020015b6101c0610cab565b8152602001906001900390816101b85790505b50905060005b848110156102e75760006037816101f1846001610df2565b81526020810191909152604001600020600401546001600160a01b031614156102d5576000610221826001610df2565b600081815260376020908152604091829020825160e0810184528154815260018201546001600160a01b039081169382019390935260028201549381019390935260038101548216606084015260048101549091166080830152600581015460a0830152600681015460ff16151560c08301528551929350918590879081106102ba57634e487b7160e01b600052603260045260246000fd5b60209081029190910101526102d0600186610df2565b945050505b806102df81610e21565b9150506101d9565b50949350505050565b606060006102fd60335490565b905060008060005b8381101561036057336037600061031d846001610df2565b81526020810191909152604001600020600401546001600160a01b0316141561034e5761034b600184610df2565b92505b8061035881610e21565b915050610305565b5060008267ffffffffffffffff81111561038a57634e487b7160e01b600052604160045260246000fd5b6040519080825280602002602001820160405280156103c357816020015b6103b0610cab565b8152602001906001900390816103a85790505b50905060005b848110156102e75733603760006103e1846001610df2565b81526020810191909152604001600020600401546001600160a01b031614156104c5576000610411826001610df2565b600081815260376020908152604091829020825160e0810184528154815260018201546001600160a01b039081169382019390935260028201549381019390935260038101548216606084015260048101549091166080830152600581015460a0830152600681015460ff16151560c08301528551929350918590879081106104aa57634e487b7160e01b600052603260045260246000fd5b60209081029190910101526104c0600186610df2565b945050505b806104cf81610e21565b9150506103c9565b6002600154141561052f5760405162461bcd60e51b815260206004820152601f60248201527f5265656e7472616e637947756172643a207265656e7472616e742063616c6c0060448201526064015b60405180910390fd5b6002600155806105815760405162461bcd60e51b815260206004820152601c60248201527f5072696365206d757374206265206174206c65617374203120776569000000006044820152606401610526565b60365434146105de5760405162461bcd60e51b8152602060048201526024808201527f5072696365206d75737420626520657175616c20746f206c697374696e6720706044820152637269636560e01b6064820152608401610526565b6105ec603380546001019055565b60006105f760335490565b6040805160e0810182528281526001600160a01b0387811660208084018281528486018a8152336060870181815260006080890181815260a08a018e815260c08b018381528d84526037909852918b902099518a55945160018a018054918a166001600160a01b0319928316179055935160028a015590516003890180549189169185169190911790559251600480890180549290981691909316179095559051600586015590516006909401805494151560ff199095169490941790935592516323b872dd60e01b81529182015230602482015260448101869052919250906323b872dd90606401600060405180830381600087803b1580156106fa57600080fd5b505af115801561070e573d6000803e3d6000fd5b50506040805133815260006020820181905291810186905260608101919091528592506001600160a01b038716915083907f045dfa01dcba2b36aba1d3dc4a874f4b0c5d2fbeb8d2c4b34a7d88c8d8f929d1906080015b60405180910390a45050600180555050565b600054610100900460ff1680610790575060005460ff16155b6107f35760405162461bcd60e51b815260206004820152602e60248201527f496e697469616c697a61626c653a20636f6e747261637420697320616c72656160448201526d191e481a5b9a5d1a585b1a5e995960921b6064820152608401610526565b600054610100900460ff16158015610815576000805461ffff19166101011790555b603580546001600160a01b031916331790556658d15e1762800060365560006038558015610849576000805461ff00191690555b50565b6002600154141561089f5760405162461bcd60e51b815260206004820152601f60248201527f5265656e7472616e637947756172643a207265656e7472616e742063616c6c006044820152606401610526565b6002600181905560008281526037602052604090206005810154910154348214610933576040805162461bcd60e51b81526020600482015260248101919091527f506c65617365207375626d6974207468652061736b696e67207072696365206960448201527f6e206f7264657220746f20636f6d706c657465207468652070757263686173656064820152608401610526565b6000838152603760205260408082206003015490516001600160a01b03909116913480156108fc02929091818181858888f1935050505015801561097b573d6000803e3d6000fd5b506040516323b872dd60e01b8152306004820152336024820152604481018290526001600160a01b038516906323b872dd90606401600060405180830381600087803b1580156109ca57600080fd5b505af11580156109de573d6000803e3d6000fd5b50505060008481526037602052604090206004810180546001600160a01b03191633179055600601805460ff1916600117905550610a20603480546001019055565b3460386000828254610a329190610df2565b90915550506035546036546040516001600160a01b039092169181156108fc0291906000818181858888f19350505050158015610a73573d6000803e3d6000fd5b50603854604080513081523360208201529081019190915281906001600160a01b0386169085907ff508d7e0c4948bef562fa93bd0f424ce063d1def0ecf2ea0cc62bb2ec041983990606001610765565b60606000610ad160335490565b905060008060005b83811015610b34573360376000610af1846001610df2565b81526020810191909152604001600020600301546001600160a01b03161415610b2257610b1f600184610df2565b92505b80610b2c81610e21565b915050610ad9565b5060008267ffffffffffffffff811115610b5e57634e487b7160e01b600052604160045260246000fd5b604051908082528060200260200182016040528015610b9757816020015b610b84610cab565b815260200190600190039081610b7c5790505b50905060005b848110156102e7573360376000610bb5846001610df2565b81526020810191909152604001600020600301546001600160a01b03161415610c99576000610be5826001610df2565b600081815260376020908152604091829020825160e0810184528154815260018201546001600160a01b039081169382019390935260028201549381019390935260038101548216606084015260048101549091166080830152600581015460a0830152600681015460ff16151560c0830152855192935091859087908110610c7e57634e487b7160e01b600052603260045260246000fd5b6020908102919091010152610c94600186610df2565b945050505b80610ca381610e21565b915050610b9d565b6040805160e081018252600080825260208201819052918101829052606081018290526080810182905260a0810182905260c081019190915290565b80356001600160a01b0381168114610cfe57600080fd5b919050565b60008060408385031215610d15578182fd5b610d1e83610ce7565b946020939093013593505050565b600080600060608486031215610d40578081fd5b610d4984610ce7565b95602085013595506040909401359392505050565b602080825282518282018190526000919060409081850190868401855b82811015610de557815180518552868101516001600160a01b039081168887015286820151878701526060808301518216908701526080808301519091169086015260a0808201519086015260c09081015115159085015260e09093019290850190600101610d7b565b5091979650505050505050565b60008219821115610e0557610e05610e3c565b500190565b600082821015610e1c57610e1c610e3c565b500390565b6000600019821415610e3557610e35610e3c565b5060010190565b634e487b7160e01b600052601160045260246000fdfea26469706673582212204dd56c114711b869b5c616e98fac599a09b1996d83e558bfe3f6f80f8c6b1b5964736f6c63430008040033",
  "linkReferences": {},
  "deployedLinkReferences": {}
}