{
  "_format": "hh-sol-artifact-1",
  "contractName": "NFTMarket",
  "sourceName": "contracts/Market.sol",
  "abi": [
    {
      "anonymous": false,
      "inputs": [
        {
          "indexed": true,
          "internalType": "uint256",
          "name": "itemId",
          "type": "uint256"
        },
        {
          "indexed": true,
          "internalType": "address",
          "name": "nftContract",
          "type": "address"
        },
        {
          "indexed": true,
          "internalType": "uint256",
          "name": "tokenId",
          "type": "uint256"
        },
        {
          "indexed": false,
          "internalType": "address",
          "name": "seller",
          "type": "address"
        },
        {
          "indexed": false,
          "internalType": "address",
          "name": "owner",
          "type": "address"
        },
        {
          "indexed": false,
          "internalType": "uint256",
          "name": "price",
          "type": "uint256"
        },
        {
          "indexed": false,
          "internalType": "bool",
          "name": "sold",
          "type": "bool"
        }
      ],
      "name": "MarketItemCreated",
      "type": "event"
    },
    {
      "anonymous": false,
      "inputs": [
        {
          "indexed": true,
          "internalType": "uint256",
          "name": "itemId",
          "type": "uint256"
        },
        {
          "indexed": true,
          "internalType": "address",
          "name": "nftContract",
          "type": "address"
        },
        {
          "indexed": true,
          "internalType": "uint256",
          "name": "tokenId",
          "type": "uint256"
        },
        {
          "indexed": false,
          "internalType": "address",
          "name": "seller",
          "type": "address"
        },
        {
          "indexed": false,
          "internalType": "address",
          "name": "owner",
          "type": "address"
        },
        {
          "indexed": false,
          "internalType": "uint256",
          "name": "totalVolume",
          "type": "uint256"
        }
      ],
      "name": "MarketItemSaled",
      "type": "event"
    },
    {
      "inputs": [
        {
          "internalType": "address",
          "name": "nftContract",
          "type": "address"
        },
        {
          "internalType": "uint256",
          "name": "tokenId",
          "type": "uint256"
        },
        {
          "internalType": "uint256",
          "name": "price",
          "type": "uint256"
        }
      ],
      "name": "createMarketItem",
      "outputs": [],
      "stateMutability": "payable",
      "type": "function"
    },
    {
      "inputs": [
        {
          "internalType": "address",
          "name": "nftContract",
          "type": "address"
        },
        {
          "internalType": "uint256",
          "name": "itemId",
          "type": "uint256"
        },
        {
          "internalType": "uint256",
          "name": "itemPrice",
          "type": "uint256"
        }
      ],
      "name": "createMarketSale",
      "outputs": [],
      "stateMutability": "nonpayable",
      "type": "function"
    },
    {
      "inputs": [],
      "name": "fetchItemsCreated",
      "outputs": [
        {
          "components": [
            {
              "internalType": "uint256",
              "name": "itemId",
              "type": "uint256"
            },
            {
              "internalType": "address",
              "name": "nftContract",
              "type": "address"
            },
            {
              "internalType": "uint256",
              "name": "tokenId",
              "type": "uint256"
            },
            {
              "internalType": "address payable",
              "name": "seller",
              "type": "address"
            },
            {
              "internalType": "address payable",
              "name": "owner",
              "type": "address"
            },
            {
              "internalType": "uint256",
              "name": "price",
              "type": "uint256"
            },
            {
              "internalType": "bool",
              "name": "sold",
              "type": "bool"
            }
          ],
          "internalType": "struct NFTMarket.MarketItem[]",
          "name": "",
          "type": "tuple[]"
        }
      ],
      "stateMutability": "view",
      "type": "function"
    },
    {
      "inputs": [],
      "name": "fetchMarketItems",
      "outputs": [
        {
          "components": [
            {
              "internalType": "uint256",
              "name": "itemId",
              "type": "uint256"
            },
            {
              "internalType": "address",
              "name": "nftContract",
              "type": "address"
            },
            {
              "internalType": "uint256",
              "name": "tokenId",
              "type": "uint256"
            },
            {
              "internalType": "address payable",
              "name": "seller",
              "type": "address"
            },
            {
              "internalType": "address payable",
              "name": "owner",
              "type": "address"
            },
            {
              "internalType": "uint256",
              "name": "price",
              "type": "uint256"
            },
            {
              "internalType": "bool",
              "name": "sold",
              "type": "bool"
            }
          ],
          "internalType": "struct NFTMarket.MarketItem[]",
          "name": "",
          "type": "tuple[]"
        }
      ],
      "stateMutability": "view",
      "type": "function"
    },
    {
      "inputs": [],
      "name": "fetchMyNFTs",
      "outputs": [
        {
          "components": [
            {
              "internalType": "uint256",
              "name": "itemId",
              "type": "uint256"
            },
            {
              "internalType": "address",
              "name": "nftContract",
              "type": "address"
            },
            {
              "internalType": "uint256",
              "name": "tokenId",
              "type": "uint256"
            },
            {
              "internalType": "address payable",
              "name": "seller",
              "type": "address"
            },
            {
              "internalType": "address payable",
              "name": "owner",
              "type": "address"
            },
            {
              "internalType": "uint256",
              "name": "price",
              "type": "uint256"
            },
            {
              "internalType": "bool",
              "name": "sold",
              "type": "bool"
            }
          ],
          "internalType": "struct NFTMarket.MarketItem[]",
          "name": "",
          "type": "tuple[]"
        }
      ],
      "stateMutability": "view",
      "type": "function"
    },
    {
      "inputs": [],
      "name": "getListingPrice",
      "outputs": [
        {
          "internalType": "uint256",
          "name": "",
          "type": "uint256"
        }
      ],
      "stateMutability": "view",
      "type": "function"
    },
    {
      "inputs": [
        {
          "internalType": "contract IERC20",
          "name": "_marketToken",
          "type": "address"
        }
      ],
      "name": "initialize",
      "outputs": [],
      "stateMutability": "nonpayable",
      "type": "function"
    },
    {
      "inputs": [],
      "name": "marketToken",
      "outputs": [
        {
          "internalType": "contract IERC20",
          "name": "",
          "type": "address"
        }
      ],
      "stateMutability": "view",
      "type": "function"
    },
    {
      "inputs": [],
      "name": "marketWallet",
      "outputs": [
        {
          "internalType": "address",
          "name": "",
          "type": "address"
        }
      ],
      "stateMutability": "view",
      "type": "function"
    },
    {
      "inputs": [],
      "name": "totalVolume",
      "outputs": [
        {
          "internalType": "uint256",
          "name": "",
          "type": "uint256"
        }
      ],
      "stateMutability": "view",
      "type": "function"
    },
    {
      "inputs": [],
      "name": "withdrawMarketToken",
      "outputs": [],
      "stateMutability": "nonpayable",
      "type": "function"
    }
  ],
  "bytecode": "0x608060405234801561001057600080fd5b506112f3806100206000396000f3fe60806040526004361061009c5760003560e01c806358eb2df51161006457806358eb2df5146101315780635f81a57c14610144578063ad48d6111461015a578063c4d66de814610192578063e4440a86146101b2578063f064c32e146101d257600080fd5b80630f08efe0146100a157806312e85585146100cc578063202e3740146100eb57806321cf91ac146101005780633fa1b70e14610122575b600080fd5b3480156100ad57600080fd5b506100b66101e7565b6040516100c391906111b1565b60405180910390f35b3480156100d857600080fd5b506036545b6040519081526020016100c3565b3480156100f757600080fd5b506100b6610390565b34801561010c57600080fd5b5061012061011b366004611122565b610577565b005b34801561012e57600080fd5b50005b61012061013f366004611122565b610b62565b34801561015057600080fd5b506100dd60385481565b34801561016657600080fd5b5060395461017a906001600160a01b031681565b6040516001600160a01b0390911681526020016100c3565b34801561019e57600080fd5b506101206101ad36600461117d565b610df9565b3480156101be57600080fd5b50603a5461017a906001600160a01b031681565b3480156101de57600080fd5b506100b6610eff565b606060006101f460335490565b9050600061020160345490565b60335461020e919061125d565b90506000808267ffffffffffffffff81111561023a57634e487b7160e01b600052604160045260246000fd5b60405190808252806020026020018201604052801561027357816020015b6102606110e6565b8152602001906001900390816102585790505b50905060005b84811015610387576000603781610291846001611245565b81526020810191909152604001600020600401546001600160a01b031614156103755760006102c1826001611245565b600081815260376020908152604091829020825160e0810184528154815260018201546001600160a01b039081169382019390935260028201549381019390935260038101548216606084015260048101549091166080830152600581015460a0830152600681015460ff16151560c083015285519293509185908790811061035a57634e487b7160e01b600052603260045260246000fd5b6020908102919091010152610370600186611245565b945050505b8061037f81611274565b915050610279565b50949350505050565b6060600061039d60335490565b905060008060005b838110156104005733603760006103bd846001611245565b81526020810191909152604001600020600401546001600160a01b031614156103ee576103eb600184611245565b92505b806103f881611274565b9150506103a5565b5060008267ffffffffffffffff81111561042a57634e487b7160e01b600052604160045260246000fd5b60405190808252806020026020018201604052801561046357816020015b6104506110e6565b8152602001906001900390816104485790505b50905060005b84811015610387573360376000610481846001611245565b81526020810191909152604001600020600401546001600160a01b031614156105655760006104b1826001611245565b600081815260376020908152604091829020825160e0810184528154815260018201546001600160a01b039081169382019390935260028201549381019390935260038101548216606084015260048101549091166080830152600581015460a0830152600681015460ff16151560c083015285519293509185908790811061054a57634e487b7160e01b600052603260045260246000fd5b6020908102919091010152610560600186611245565b945050505b8061056f81611274565b915050610469565b600260015414156105cf5760405162461bcd60e51b815260206004820152601f60248201527f5265656e7472616e637947756172643a207265656e7472616e742063616c6c0060448201526064015b60405180910390fd5b6002600155600082815260376020526040902060060154829060ff161561062f5760405162461bcd60e51b81526020600482015260146024820152734974656d206973206e6f7420666f722073616c6560601b60448201526064016105c6565b6000838152603760205260409020600581015460029091015473f740e266a17918c20ce2dd40eefad2b2f8dacb458483146106d4576040805162461bcd60e51b81526020600482015260248101919091527f506c65617365207375626d6974207468652061736b696e67207072696365206960448201527f6e206f7264657220746f20636f6d706c6574652074686520707572636861736560648201526084016105c6565b6040516370a0823160e01b815233600482015283906001600160a01b038316906370a082319060240160206040518083038186803b15801561071557600080fd5b505afa158015610729573d6000803e3d6000fd5b505050506040513d601f19601f8201168201806040525081019061074d9190611199565b116107915760405162461bcd60e51b8152602060048201526014602482015273636865636b2073656e6465722062616c616e636560601b60448201526064016105c6565b6040516370a0823160e01b815230600482015283906001600160a01b038316906370a082319060240160206040518083038186803b1580156107d257600080fd5b505afa1580156107e6573d6000803e3d6000fd5b505050506040513d601f19601f8201168201806040525081019061080a9190611199565b116108575760405162461bcd60e51b815260206004820152601960248201527f636865636b206d61726b6574706c6163652062616c616e63650000000000000060448201526064016105c6565b60405163095ea7b360e01b8152306004820152602481018490526001600160a01b0382169063095ea7b390604401602060405180830381600087803b15801561089f57600080fd5b505af11580156108b3573d6000803e3d6000fd5b505050506040513d601f19601f820116820180604052508101906108d79190611156565b151560011461091f5760405162461bcd60e51b8152602060048201526014602482015273185c1c1c9bdd99481d1bdad95b8819985a5b195960621b60448201526064016105c6565b604051636eb1769f60e11b81523360048201523060248201526000906001600160a01b0383169063dd62ed3e9060440160206040518083038186803b15801561096757600080fd5b505afa15801561097b573d6000803e3d6000fd5b505050506040513d601f19601f8201168201806040525081019061099f9190611199565b9050838110156109f15760405162461bcd60e51b815260206004820152601960248201527f436865636b2074686520746f6b656e20616c6c6f77616e63650000000000000060448201526064016105c6565b600087815260376020526040908190206003015490516323b872dd60e01b81523360048201526001600160a01b03918216602482015260448101869052908316906323b872dd90606401602060405180830381600087803b158015610a5557600080fd5b505af1158015610a69573d6000803e3d6000fd5b505050506040513d601f19601f82011682018060405250810190610a8d9190611156565b1515600114610aea5760405162461bcd60e51b815260206004820152602360248201527f436f756c64206e6f742073656e6420746f6b656e7320746f20746865206d61726044820152621ad95d60ea1b60648201526084016105c6565b8360386000828254610afc9190611245565b9091555050603854604080513081523360208201529081019190915283906001600160a01b038a169089907ff508d7e0c4948bef562fa93bd0f424ce063d1def0ecf2ea0cc62bb2ec04198399060600160405180910390a4505060018055505050505050565b60026001541415610bb55760405162461bcd60e51b815260206004820152601f60248201527f5265656e7472616e637947756172643a207265656e7472616e742063616c6c0060448201526064016105c6565b600260015580610c075760405162461bcd60e51b815260206004820152601c60248201527f5072696365206d757374206265206174206c656173742031207765690000000060448201526064016105c6565b6036543414610c645760405162461bcd60e51b8152602060048201526024808201527f5072696365206d75737420626520657175616c20746f206c697374696e6720706044820152637269636560e01b60648201526084016105c6565b610c72603380546001019055565b6000610c7d60335490565b6040805160e0810182528281526001600160a01b0387811660208084018281528486018a8152336060870181815260006080890181815260a08a018e815260c08b018381528d84526037909852918b902099518a55945160018a018054918a166001600160a01b0319928316179055935160028a015590516003890180549189169185169190911790559251600480890180549290981691909316179095559051600586015590516006909401805494151560ff199095169490941790935592516323b872dd60e01b81529182015230602482015260448101869052919250906323b872dd90606401600060405180830381600087803b158015610d8057600080fd5b505af1158015610d94573d6000803e3d6000fd5b505060408051338152600060208201819052818301879052606082015290518693506001600160a01b038816925084917f045dfa01dcba2b36aba1d3dc4a874f4b0c5d2fbeb8d2c4b34a7d88c8d8f929d1919081900360800190a45050600180555050565b600054610100900460ff1680610e12575060005460ff16155b610e755760405162461bcd60e51b815260206004820152602e60248201527f496e697469616c697a61626c653a20636f6e747261637420697320616c72656160448201526d191e481a5b9a5d1a585b1a5e995960921b60648201526084016105c6565b600054610100900460ff16158015610e97576000805461ffff19166101011790555b603580546001600160a01b031990811633908117909255670de0b6b3a7640000603655600060385560398054821673f740e266a17918c20ce2dd40eefad2b2f8dacb45179055603a805490911690911790558015610efb576000805461ff00191690555b5050565b60606000610f0c60335490565b905060008060005b83811015610f6f573360376000610f2c846001611245565b81526020810191909152604001600020600301546001600160a01b03161415610f5d57610f5a600184611245565b92505b80610f6781611274565b915050610f14565b5060008267ffffffffffffffff811115610f9957634e487b7160e01b600052604160045260246000fd5b604051908082528060200260200182016040528015610fd257816020015b610fbf6110e6565b815260200190600190039081610fb75790505b50905060005b84811015610387573360376000610ff0846001611245565b81526020810191909152604001600020600301546001600160a01b031614156110d4576000611020826001611245565b600081815260376020908152604091829020825160e0810184528154815260018201546001600160a01b039081169382019390935260028201549381019390935260038101548216606084015260048101549091166080830152600581015460a0830152600681015460ff16151560c08301528551929350918590879081106110b957634e487b7160e01b600052603260045260246000fd5b60209081029190910101526110cf600186611245565b945050505b806110de81611274565b915050610fd8565b6040805160e081018252600080825260208201819052918101829052606081018290526080810182905260a0810182905260c081019190915290565b600080600060608486031215611136578283fd5b8335611141816112a5565b95602085013595506040909401359392505050565b600060208284031215611167578081fd5b81518015158114611176578182fd5b9392505050565b60006020828403121561118e578081fd5b8135611176816112a5565b6000602082840312156111aa578081fd5b5051919050565b602080825282518282018190526000919060409081850190868401855b8281101561123857815180518552868101516001600160a01b039081168887015286820151878701526060808301518216908701526080808301519091169086015260a0808201519086015260c09081015115159085015260e090930192908501906001016111ce565b5091979650505050505050565b600082198211156112585761125861128f565b500190565b60008282101561126f5761126f61128f565b500390565b60006000198214156112885761128861128f565b5060010190565b634e487b7160e01b600052601160045260246000fd5b6001600160a01b03811681146112ba57600080fd5b5056fea2646970667358221220d1e4a667aa1f908990dbe69a2a97bbe9c5735a9a321d25a57b7fb2a2008e473064736f6c63430008040033",
  "linkReferences": {},
  "deployedLinkReferences": {}
}