{
  "_format": "hh-sol-artifact-1",
  "contractName": "NFTMarket",
  "sourceName": "contracts/Market.sol",
  "abi": [
    {
      "anonymous": false,
      "inputs": [
        {
          "indexed": true,
          "internalType": "uint256",
          "name": "itemId",
          "type": "uint256"
        },
        {
          "indexed": true,
          "internalType": "address",
          "name": "nftContract",
          "type": "address"
        },
        {
          "indexed": true,
          "internalType": "uint256",
          "name": "tokenId",
          "type": "uint256"
        },
        {
          "indexed": false,
          "internalType": "address",
          "name": "seller",
          "type": "address"
        },
        {
          "indexed": false,
          "internalType": "address",
          "name": "owner",
          "type": "address"
        },
        {
          "indexed": false,
          "internalType": "uint256",
          "name": "price",
          "type": "uint256"
        },
        {
          "indexed": false,
          "internalType": "bool",
          "name": "sold",
          "type": "bool"
        }
      ],
      "name": "MarketItemCreated",
      "type": "event"
    },
    {
      "anonymous": false,
      "inputs": [
        {
          "indexed": true,
          "internalType": "uint256",
          "name": "itemId",
          "type": "uint256"
        },
        {
          "indexed": true,
          "internalType": "address",
          "name": "nftContract",
          "type": "address"
        },
        {
          "indexed": true,
          "internalType": "uint256",
          "name": "tokenId",
          "type": "uint256"
        },
        {
          "indexed": false,
          "internalType": "address",
          "name": "seller",
          "type": "address"
        },
        {
          "indexed": false,
          "internalType": "address",
          "name": "owner",
          "type": "address"
        },
        {
          "indexed": false,
          "internalType": "uint256",
          "name": "totalVolume",
          "type": "uint256"
        }
      ],
      "name": "MarketItemSaled",
      "type": "event"
    },
    {
      "inputs": [
        {
          "internalType": "address",
          "name": "nftContract",
          "type": "address"
        },
        {
          "internalType": "uint256",
          "name": "tokenId",
          "type": "uint256"
        },
        {
          "internalType": "uint256",
          "name": "price",
          "type": "uint256"
        },
        {
          "internalType": "string",
          "name": "tokenURI",
          "type": "string"
        }
      ],
      "name": "createMarketItem",
      "outputs": [],
      "stateMutability": "nonpayable",
      "type": "function"
    },
    {
      "inputs": [
        {
          "internalType": "address",
          "name": "nftContract",
          "type": "address"
        },
        {
          "internalType": "uint256",
          "name": "itemId",
          "type": "uint256"
        },
        {
          "internalType": "uint256",
          "name": "itemPrice",
          "type": "uint256"
        }
      ],
      "name": "createMarketSale",
      "outputs": [],
      "stateMutability": "nonpayable",
      "type": "function"
    },
    {
      "inputs": [],
      "name": "fetchItemsCreated",
      "outputs": [
        {
          "components": [
            {
              "internalType": "uint256",
              "name": "itemId",
              "type": "uint256"
            },
            {
              "internalType": "address",
              "name": "nftContract",
              "type": "address"
            },
            {
              "internalType": "uint256",
              "name": "tokenId",
              "type": "uint256"
            },
            {
              "internalType": "address payable",
              "name": "seller",
              "type": "address"
            },
            {
              "internalType": "address payable",
              "name": "owner",
              "type": "address"
            },
            {
              "internalType": "uint256",
              "name": "price",
              "type": "uint256"
            },
            {
              "internalType": "bool",
              "name": "sold",
              "type": "bool"
            }
          ],
          "internalType": "struct NFTMarket.MarketItem[]",
          "name": "",
          "type": "tuple[]"
        }
      ],
      "stateMutability": "view",
      "type": "function"
    },
    {
      "inputs": [],
      "name": "fetchMarketItems",
      "outputs": [
        {
          "components": [
            {
              "internalType": "uint256",
              "name": "itemId",
              "type": "uint256"
            },
            {
              "internalType": "address",
              "name": "nftContract",
              "type": "address"
            },
            {
              "internalType": "uint256",
              "name": "tokenId",
              "type": "uint256"
            },
            {
              "internalType": "address payable",
              "name": "seller",
              "type": "address"
            },
            {
              "internalType": "address payable",
              "name": "owner",
              "type": "address"
            },
            {
              "internalType": "uint256",
              "name": "price",
              "type": "uint256"
            },
            {
              "internalType": "bool",
              "name": "sold",
              "type": "bool"
            }
          ],
          "internalType": "struct NFTMarket.MarketItem[]",
          "name": "",
          "type": "tuple[]"
        }
      ],
      "stateMutability": "view",
      "type": "function"
    },
    {
      "inputs": [],
      "name": "fetchMyNFTs",
      "outputs": [
        {
          "components": [
            {
              "internalType": "uint256",
              "name": "itemId",
              "type": "uint256"
            },
            {
              "internalType": "address",
              "name": "nftContract",
              "type": "address"
            },
            {
              "internalType": "uint256",
              "name": "tokenId",
              "type": "uint256"
            },
            {
              "internalType": "address payable",
              "name": "seller",
              "type": "address"
            },
            {
              "internalType": "address payable",
              "name": "owner",
              "type": "address"
            },
            {
              "internalType": "uint256",
              "name": "price",
              "type": "uint256"
            },
            {
              "internalType": "bool",
              "name": "sold",
              "type": "bool"
            }
          ],
          "internalType": "struct NFTMarket.MarketItem[]",
          "name": "",
          "type": "tuple[]"
        }
      ],
      "stateMutability": "view",
      "type": "function"
    },
    {
      "inputs": [],
      "name": "getListingPrice",
      "outputs": [
        {
          "internalType": "uint256",
          "name": "",
          "type": "uint256"
        }
      ],
      "stateMutability": "view",
      "type": "function"
    },
    {
      "inputs": [
        {
          "internalType": "contract IERC20",
          "name": "_marketToken",
          "type": "address"
        }
      ],
      "name": "initialize",
      "outputs": [],
      "stateMutability": "nonpayable",
      "type": "function"
    },
    {
      "inputs": [],
      "name": "marketToken",
      "outputs": [
        {
          "internalType": "contract IERC20",
          "name": "",
          "type": "address"
        }
      ],
      "stateMutability": "view",
      "type": "function"
    },
    {
      "inputs": [],
      "name": "marketWallet",
      "outputs": [
        {
          "internalType": "address",
          "name": "",
          "type": "address"
        }
      ],
      "stateMutability": "view",
      "type": "function"
    },
    {
      "inputs": [],
      "name": "totalVolume",
      "outputs": [
        {
          "internalType": "uint256",
          "name": "",
          "type": "uint256"
        }
      ],
      "stateMutability": "view",
      "type": "function"
    },
    {
      "inputs": [],
      "name": "withdrawMarketToken",
      "outputs": [],
      "stateMutability": "nonpayable",
      "type": "function"
    }
  ],
  "bytecode": "0x608060405234801561001057600080fd5b506113b5806100206000396000f3fe608060405234801561001057600080fd5b50600436106100a95760003560e01c80635f81a57c116100715780635f81a57c146100fb578063ad48d61114610104578063c4d66de81461012f578063e4440a8614610142578063ee45a71114610155578063f064c32e1461016857600080fd5b80630f08efe0146100ae57806312e85585146100cc578063202e3740146100de57806321cf91ac146100e65780633fa1b70e146100f9575b600080fd5b6100b6610170565b6040516100c3919061125d565b60405180910390f35b6036545b6040519081526020016100c3565b6100b6610319565b6100f96100f43660046110da565b610500565b005b6100d060385481565b603954610117906001600160a01b031681565b6040516001600160a01b0390911681526020016100c3565b6100f961013d366004611205565b610a18565b603a54610117906001600160a01b031681565b6100f961016336600461110e565b610b1e565b6100b6610eb7565b6060600061017d60335490565b9050600061018a60345490565b6033546101979190611309565b90506000808267ffffffffffffffff8111156101c357634e487b7160e01b600052604160045260246000fd5b6040519080825280602002602001820160405280156101fc57816020015b6101e961109e565b8152602001906001900390816101e15790505b50905060005b8481101561031057600060378161021a8460016112f1565b81526020810191909152604001600020600401546001600160a01b031614156102fe57600061024a8260016112f1565b600081815260376020908152604091829020825160e0810184528154815260018201546001600160a01b039081169382019390935260028201549381019390935260038101548216606084015260048101549091166080830152600581015460a0830152600681015460ff16151560c08301528551929350918590879081106102e357634e487b7160e01b600052603260045260246000fd5b60209081029190910101526102f96001866112f1565b945050505b8061030881611320565b915050610202565b50949350505050565b6060600061032660335490565b905060008060005b838110156103895733603760006103468460016112f1565b81526020810191909152604001600020600401546001600160a01b03161415610377576103746001846112f1565b92505b8061038181611320565b91505061032e565b5060008267ffffffffffffffff8111156103b357634e487b7160e01b600052604160045260246000fd5b6040519080825280602002602001820160405280156103ec57816020015b6103d961109e565b8152602001906001900390816103d15790505b50905060005b8481101561031057336037600061040a8460016112f1565b81526020810191909152604001600020600401546001600160a01b031614156104ee57600061043a8260016112f1565b600081815260376020908152604091829020825160e0810184528154815260018201546001600160a01b039081169382019390935260028201549381019390935260038101548216606084015260048101549091166080830152600581015460a0830152600681015460ff16151560c08301528551929350918590879081106104d357634e487b7160e01b600052603260045260246000fd5b60209081029190910101526104e96001866112f1565b945050505b806104f881611320565b9150506103f2565b600260015414156105585760405162461bcd60e51b815260206004820152601f60248201527f5265656e7472616e637947756172643a207265656e7472616e742063616c6c0060448201526064015b60405180910390fd5b6002600155600082815260376020526040902060060154829060ff16156105b85760405162461bcd60e51b81526020600482015260146024820152734974656d206973206e6f7420666f722073616c6560601b604482015260640161054f565b60008381526037602052604090206005810154600290910154838214610648576040805162461bcd60e51b81526020600482015260248101919091527f506c65617365207375626d6974207468652061736b696e67207072696365206960448201527f6e206f7264657220746f20636f6d706c65746520746865207075726368617365606482015260840161054f565b6039546040516370a0823160e01b815233600482015283916001600160a01b0316906370a082319060240160206040518083038186803b15801561068b57600080fd5b505afa15801561069f573d6000803e3d6000fd5b505050506040513d601f19601f820116820180604052508101906106c39190611221565b116107065760405162461bcd60e51b8152602060048201526013602482015272636865636b2062757965722062616c616e636560681b604482015260640161054f565b603954604051636eb1769f60e11b81523360048201523060248201526000916001600160a01b03169063dd62ed3e9060440160206040518083038186803b15801561075057600080fd5b505afa158015610764573d6000803e3d6000fd5b505050506040513d601f19601f820116820180604052508101906107889190611221565b9050828110156107d65760405162461bcd60e51b8152602060048201526019602482015278436865636b2074686520746f6b656e20616c6c6f77616e636560381b604482015260640161054f565b603954600087815260376020526040908190206003015490516323b872dd60e01b81526001600160a01b03928316926323b872dd9261081f923392909116908890600401611239565b602060405180830381600087803b15801561083957600080fd5b505af115801561084d573d6000803e3d6000fd5b505050506040513d601f19601f8201168201806040525081019061087191906111de565b15156001146108ce5760405162461bcd60e51b815260206004820152602360248201527f436f756c64206e6f742073656e6420746f6b656e7320746f20746865206d61726044820152621ad95d60ea1b606482015260840161054f565b604051632142170760e11b81526001600160a01b038816906342842e0e906108fe90309033908790600401611239565b600060405180830381600087803b15801561091857600080fd5b505af115801561092c573d6000803e3d6000fd5b50505060008781526037602052604090206004810180546001600160a01b03191633179055600601805460ff191660011790555061096e603480546001019055565b826038600082825461098091906112f1565b90915550506035546036546040516001600160a01b039092169181156108fc0291906000818181858888f193505050501580156109c1573d6000803e3d6000fd5b5081876001600160a01b0316877ff508d7e0c4948bef562fa93bd0f424ce063d1def0ecf2ea0cc62bb2ec04198393033603854604051610a0393929190611239565b60405180910390a45050600180555050505050565b600054610100900460ff1680610a31575060005460ff16155b610a945760405162461bcd60e51b815260206004820152602e60248201527f496e697469616c697a61626c653a20636f6e747261637420697320616c72656160448201526d191e481a5b9a5d1a585b1a5e995960921b606482015260840161054f565b600054610100900460ff16158015610ab6576000805461ffff19166101011790555b603580546001600160a01b031990811633908117909255670de0b6b3a7640000603655600060385560398054821673f740e266a17918c20ce2dd40eefad2b2f8dacb45179055603a805490911690911790558015610b1a576000805461ff00191690555b5050565b60026001541415610b715760405162461bcd60e51b815260206004820152601f60248201527f5265656e7472616e637947756172643a207265656e7472616e742063616c6c00604482015260640161054f565b600260015581610bc35760405162461bcd60e51b815260206004820152601c60248201527f5072696365206d757374206265206174206c6561737420312077656900000000604482015260640161054f565b610bd1603380546001019055565b6000610bdc60335490565b6040805160e0810182528281526001600160a01b0388811660208084018281528486018b8152336060870181815260006080890181815260a08a018f815260c08b018381528d84526037909852918b902099518a55945160018a0180546001600160a01b0319908116928b16929092179055935160028a01559051600389018054851691891691909117905592516004808901805490941691909716179091559051600586015590516006909401805460ff1916941515949094179093559251632142170760e11b815293945091926342842e0e92610cc0929130918a9101611239565b600060405180830381600087803b158015610cda57600080fd5b505af1158015610cee573d6000803e3d6000fd5b5050603954604051636eb1769f60e11b8152336004820152306024820152600093506001600160a01b03909116915063dd62ed3e9060440160206040518083038186803b158015610d3e57600080fd5b505afa158015610d52573d6000803e3d6000fd5b505050506040513d601f19601f82011682018060405250810190610d769190611221565b9050603654811015610dc65760405162461bcd60e51b8152602060048201526019602482015278436865636b2074686520746f6b656e20616c6c6f77616e636560381b604482015260640161054f565b603954603a546036546040516323b872dd60e01b81526001600160a01b03938416936323b872dd93610e019333939290911691600401611239565b602060405180830381600087803b158015610e1b57600080fd5b505af1158015610e2f573d6000803e3d6000fd5b505050506040513d601f19601f82011682018060405250810190610e5391906111de565b50604080513381526000602082018190528183018790526060820152905186916001600160a01b0389169185917f045dfa01dcba2b36aba1d3dc4a874f4b0c5d2fbeb8d2c4b34a7d88c8d8f929d1919081900360800190a450506001805550505050565b60606000610ec460335490565b905060008060005b83811015610f27573360376000610ee48460016112f1565b81526020810191909152604001600020600301546001600160a01b03161415610f1557610f126001846112f1565b92505b80610f1f81611320565b915050610ecc565b5060008267ffffffffffffffff811115610f5157634e487b7160e01b600052604160045260246000fd5b604051908082528060200260200182016040528015610f8a57816020015b610f7761109e565b815260200190600190039081610f6f5790505b50905060005b84811015610310573360376000610fa88460016112f1565b81526020810191909152604001600020600301546001600160a01b0316141561108c576000610fd88260016112f1565b600081815260376020908152604091829020825160e0810184528154815260018201546001600160a01b039081169382019390935260028201549381019390935260038101548216606084015260048101549091166080830152600581015460a0830152600681015460ff16151560c083015285519293509185908790811061107157634e487b7160e01b600052603260045260246000fd5b60209081029190910101526110876001866112f1565b945050505b8061109681611320565b915050610f90565b6040805160e081018252600080825260208201819052918101829052606081018290526080810182905260a0810182905260c081019190915290565b6000806000606084860312156110ee578283fd5b83356110f981611367565b95602085013595506040909401359392505050565b60008060008060808587031215611123578081fd5b843561112e81611367565b93506020850135925060408501359150606085013567ffffffffffffffff80821115611158578283fd5b818701915087601f83011261116b578283fd5b81358181111561117d5761117d611351565b604051601f8201601f19908116603f011681019083821181831017156111a5576111a5611351565b816040528281528a60208487010111156111bd578586fd5b82602086016020830137918201602001949094529598949750929550505050565b6000602082840312156111ef578081fd5b815180151581146111fe578182fd5b9392505050565b600060208284031215611216578081fd5b81356111fe81611367565b600060208284031215611232578081fd5b5051919050565b6001600160a01b039384168152919092166020820152604081019190915260600190565b602080825282518282018190526000919060409081850190868401855b828110156112e457815180518552868101516001600160a01b039081168887015286820151878701526060808301518216908701526080808301519091169086015260a0808201519086015260c09081015115159085015260e0909301929085019060010161127a565b5091979650505050505050565b600082198211156113045761130461133b565b500190565b60008282101561131b5761131b61133b565b500390565b60006000198214156113345761133461133b565b5060010190565b634e487b7160e01b600052601160045260246000fd5b634e487b7160e01b600052604160045260246000fd5b6001600160a01b038116811461137c57600080fd5b5056fea26469706673582212200a80d3844342b8994de8744680f44975f611cad1a92209bd3827157510d7704964736f6c63430008040033",
  "linkReferences": {},
  "deployedLinkReferences": {}
}