{
  "_format": "hh-sol-artifact-1",
  "contractName": "NFTMarket",
  "sourceName": "contracts/Market.sol",
  "abi": [
    {
      "anonymous": false,
      "inputs": [
        {
          "indexed": true,
          "internalType": "uint256",
          "name": "itemId",
          "type": "uint256"
        },
        {
          "indexed": true,
          "internalType": "address",
          "name": "nftContract",
          "type": "address"
        },
        {
          "indexed": true,
          "internalType": "uint256",
          "name": "tokenId",
          "type": "uint256"
        },
        {
          "indexed": false,
          "internalType": "address",
          "name": "seller",
          "type": "address"
        },
        {
          "indexed": false,
          "internalType": "address",
          "name": "owner",
          "type": "address"
        },
        {
          "indexed": false,
          "internalType": "uint256",
          "name": "price",
          "type": "uint256"
        },
        {
          "indexed": false,
          "internalType": "bool",
          "name": "sold",
          "type": "bool"
        }
      ],
      "name": "MarketItemCreated",
      "type": "event"
    },
    {
      "anonymous": false,
      "inputs": [
        {
          "indexed": true,
          "internalType": "uint256",
          "name": "itemId",
          "type": "uint256"
        },
        {
          "indexed": true,
          "internalType": "address",
          "name": "nftContract",
          "type": "address"
        },
        {
          "indexed": true,
          "internalType": "uint256",
          "name": "tokenId",
          "type": "uint256"
        },
        {
          "indexed": false,
          "internalType": "address",
          "name": "seller",
          "type": "address"
        },
        {
          "indexed": false,
          "internalType": "address",
          "name": "owner",
          "type": "address"
        },
        {
          "indexed": false,
          "internalType": "uint256",
          "name": "totalVolume",
          "type": "uint256"
        }
      ],
      "name": "MarketItemSaled",
      "type": "event"
    },
    {
      "inputs": [
        {
          "internalType": "address",
          "name": "nftContract",
          "type": "address"
        },
        {
          "internalType": "uint256",
          "name": "tokenId",
          "type": "uint256"
        },
        {
          "internalType": "uint256",
          "name": "price",
          "type": "uint256"
        }
      ],
      "name": "createMarketItem",
      "outputs": [],
      "stateMutability": "payable",
      "type": "function"
    },
    {
      "inputs": [
        {
          "internalType": "address",
          "name": "nftContract",
          "type": "address"
        },
        {
          "internalType": "uint256",
          "name": "itemId",
          "type": "uint256"
        },
        {
          "internalType": "uint256",
          "name": "itemPrice",
          "type": "uint256"
        }
      ],
      "name": "createMarketSale",
      "outputs": [],
      "stateMutability": "nonpayable",
      "type": "function"
    },
    {
      "inputs": [],
      "name": "fetchItemsCreated",
      "outputs": [
        {
          "components": [
            {
              "internalType": "uint256",
              "name": "itemId",
              "type": "uint256"
            },
            {
              "internalType": "address",
              "name": "nftContract",
              "type": "address"
            },
            {
              "internalType": "uint256",
              "name": "tokenId",
              "type": "uint256"
            },
            {
              "internalType": "address payable",
              "name": "seller",
              "type": "address"
            },
            {
              "internalType": "address payable",
              "name": "owner",
              "type": "address"
            },
            {
              "internalType": "uint256",
              "name": "price",
              "type": "uint256"
            },
            {
              "internalType": "bool",
              "name": "sold",
              "type": "bool"
            }
          ],
          "internalType": "struct NFTMarket.MarketItem[]",
          "name": "",
          "type": "tuple[]"
        }
      ],
      "stateMutability": "view",
      "type": "function"
    },
    {
      "inputs": [],
      "name": "fetchMarketItems",
      "outputs": [
        {
          "components": [
            {
              "internalType": "uint256",
              "name": "itemId",
              "type": "uint256"
            },
            {
              "internalType": "address",
              "name": "nftContract",
              "type": "address"
            },
            {
              "internalType": "uint256",
              "name": "tokenId",
              "type": "uint256"
            },
            {
              "internalType": "address payable",
              "name": "seller",
              "type": "address"
            },
            {
              "internalType": "address payable",
              "name": "owner",
              "type": "address"
            },
            {
              "internalType": "uint256",
              "name": "price",
              "type": "uint256"
            },
            {
              "internalType": "bool",
              "name": "sold",
              "type": "bool"
            }
          ],
          "internalType": "struct NFTMarket.MarketItem[]",
          "name": "",
          "type": "tuple[]"
        }
      ],
      "stateMutability": "view",
      "type": "function"
    },
    {
      "inputs": [],
      "name": "fetchMyNFTs",
      "outputs": [
        {
          "components": [
            {
              "internalType": "uint256",
              "name": "itemId",
              "type": "uint256"
            },
            {
              "internalType": "address",
              "name": "nftContract",
              "type": "address"
            },
            {
              "internalType": "uint256",
              "name": "tokenId",
              "type": "uint256"
            },
            {
              "internalType": "address payable",
              "name": "seller",
              "type": "address"
            },
            {
              "internalType": "address payable",
              "name": "owner",
              "type": "address"
            },
            {
              "internalType": "uint256",
              "name": "price",
              "type": "uint256"
            },
            {
              "internalType": "bool",
              "name": "sold",
              "type": "bool"
            }
          ],
          "internalType": "struct NFTMarket.MarketItem[]",
          "name": "",
          "type": "tuple[]"
        }
      ],
      "stateMutability": "view",
      "type": "function"
    },
    {
      "inputs": [],
      "name": "getListingPrice",
      "outputs": [
        {
          "internalType": "uint256",
          "name": "",
          "type": "uint256"
        }
      ],
      "stateMutability": "view",
      "type": "function"
    },
    {
      "inputs": [
        {
          "internalType": "contract IERC20",
          "name": "_marketToken",
          "type": "address"
        }
      ],
      "name": "initialize",
      "outputs": [],
      "stateMutability": "nonpayable",
      "type": "function"
    },
    {
      "inputs": [],
      "name": "marketToken",
      "outputs": [
        {
          "internalType": "contract IERC20",
          "name": "",
          "type": "address"
        }
      ],
      "stateMutability": "view",
      "type": "function"
    },
    {
      "inputs": [],
      "name": "marketWallet",
      "outputs": [
        {
          "internalType": "address",
          "name": "",
          "type": "address"
        }
      ],
      "stateMutability": "view",
      "type": "function"
    },
    {
      "inputs": [],
      "name": "totalVolume",
      "outputs": [
        {
          "internalType": "uint256",
          "name": "",
          "type": "uint256"
        }
      ],
      "stateMutability": "view",
      "type": "function"
    },
    {
      "inputs": [],
      "name": "withdrawMarketToken",
      "outputs": [],
      "stateMutability": "nonpayable",
      "type": "function"
    }
  ],
  "bytecode": "0x608060405234801561001057600080fd5b506113a2806100206000396000f3fe60806040526004361061009c5760003560e01c806358eb2df51161006457806358eb2df5146101315780635f81a57c14610144578063ad48d6111461015a578063c4d66de814610192578063e4440a86146101b2578063f064c32e146101d257600080fd5b80630f08efe0146100a157806312e85585146100cc578063202e3740146100eb57806321cf91ac146101005780633fa1b70e14610122575b600080fd5b3480156100ad57600080fd5b506100b66101e7565b6040516100c39190611260565b60405180910390f35b3480156100d857600080fd5b506036545b6040519081526020016100c3565b3480156100f757600080fd5b506100b6610390565b34801561010c57600080fd5b5061012061011b3660046111ad565b610577565b005b34801561012e57600080fd5b50005b61012061013f3660046111ad565b610a8f565b34801561015057600080fd5b506100dd60385481565b34801561016657600080fd5b5060395461017a906001600160a01b031681565b6040516001600160a01b0390911681526020016100c3565b34801561019e57600080fd5b506101206101ad366004611208565b610e84565b3480156101be57600080fd5b50603a5461017a906001600160a01b031681565b3480156101de57600080fd5b506100b6610f8a565b606060006101f460335490565b9050600061020160345490565b60335461020e919061130c565b90506000808267ffffffffffffffff81111561023a57634e487b7160e01b600052604160045260246000fd5b60405190808252806020026020018201604052801561027357816020015b610260611171565b8152602001906001900390816102585790505b50905060005b848110156103875760006037816102918460016112f4565b81526020810191909152604001600020600401546001600160a01b031614156103755760006102c18260016112f4565b600081815260376020908152604091829020825160e0810184528154815260018201546001600160a01b039081169382019390935260028201549381019390935260038101548216606084015260048101549091166080830152600581015460a0830152600681015460ff16151560c083015285519293509185908790811061035a57634e487b7160e01b600052603260045260246000fd5b60209081029190910101526103706001866112f4565b945050505b8061037f81611323565b915050610279565b50949350505050565b6060600061039d60335490565b905060008060005b838110156104005733603760006103bd8460016112f4565b81526020810191909152604001600020600401546001600160a01b031614156103ee576103eb6001846112f4565b92505b806103f881611323565b9150506103a5565b5060008267ffffffffffffffff81111561042a57634e487b7160e01b600052604160045260246000fd5b60405190808252806020026020018201604052801561046357816020015b610450611171565b8152602001906001900390816104485790505b50905060005b848110156103875733603760006104818460016112f4565b81526020810191909152604001600020600401546001600160a01b031614156105655760006104b18260016112f4565b600081815260376020908152604091829020825160e0810184528154815260018201546001600160a01b039081169382019390935260028201549381019390935260038101548216606084015260048101549091166080830152600581015460a0830152600681015460ff16151560c083015285519293509185908790811061054a57634e487b7160e01b600052603260045260246000fd5b60209081029190910101526105606001866112f4565b945050505b8061056f81611323565b915050610469565b600260015414156105cf5760405162461bcd60e51b815260206004820152601f60248201527f5265656e7472616e637947756172643a207265656e7472616e742063616c6c0060448201526064015b60405180910390fd5b6002600155600082815260376020526040902060060154829060ff161561062f5760405162461bcd60e51b81526020600482015260146024820152734974656d206973206e6f7420666f722073616c6560601b60448201526064016105c6565b600083815260376020526040902060058101546002909101548382146106bf576040805162461bcd60e51b81526020600482015260248101919091527f506c65617365207375626d6974207468652061736b696e67207072696365206960448201527f6e206f7264657220746f20636f6d706c6574652074686520707572636861736560648201526084016105c6565b6039546040516370a0823160e01b815233600482015283916001600160a01b0316906370a082319060240160206040518083038186803b15801561070257600080fd5b505afa158015610716573d6000803e3d6000fd5b505050506040513d601f19601f8201168201806040525081019061073a9190611224565b1161077d5760405162461bcd60e51b8152602060048201526013602482015272636865636b2062757965722062616c616e636560681b60448201526064016105c6565b603954604051636eb1769f60e11b81523360048201523060248201526000916001600160a01b03169063dd62ed3e9060440160206040518083038186803b1580156107c757600080fd5b505afa1580156107db573d6000803e3d6000fd5b505050506040513d601f19601f820116820180604052508101906107ff9190611224565b90508281101561084d5760405162461bcd60e51b8152602060048201526019602482015278436865636b2074686520746f6b656e20616c6c6f77616e636560381b60448201526064016105c6565b603954600087815260376020526040908190206003015490516323b872dd60e01b81526001600160a01b03928316926323b872dd9261089692339290911690889060040161123c565b602060405180830381600087803b1580156108b057600080fd5b505af11580156108c4573d6000803e3d6000fd5b505050506040513d601f19601f820116820180604052508101906108e891906111e1565b15156001146109455760405162461bcd60e51b815260206004820152602360248201527f436f756c64206e6f742073656e6420746f6b656e7320746f20746865206d61726044820152621ad95d60ea1b60648201526084016105c6565b604051632142170760e11b81526001600160a01b038816906342842e0e906109759030903390879060040161123c565b600060405180830381600087803b15801561098f57600080fd5b505af11580156109a3573d6000803e3d6000fd5b50505060008781526037602052604090206004810180546001600160a01b03191633179055600601805460ff19166001179055506109e5603480546001019055565b82603860008282546109f791906112f4565b90915550506035546036546040516001600160a01b039092169181156108fc0291906000818181858888f19350505050158015610a38573d6000803e3d6000fd5b5081876001600160a01b0316877ff508d7e0c4948bef562fa93bd0f424ce063d1def0ecf2ea0cc62bb2ec04198393033603854604051610a7a9392919061123c565b60405180910390a45050600180555050505050565b60026001541415610ae25760405162461bcd60e51b815260206004820152601f60248201527f5265656e7472616e637947756172643a207265656e7472616e742063616c6c0060448201526064016105c6565b600260015580610b345760405162461bcd60e51b815260206004820152601c60248201527f5072696365206d757374206265206174206c656173742031207765690000000060448201526064016105c6565b6036543414610b915760405162461bcd60e51b8152602060048201526024808201527f5072696365206d75737420626520657175616c20746f206c697374696e6720706044820152637269636560e01b60648201526084016105c6565b610b9f603380546001019055565b6000610baa60335490565b6040805160e0810182528281526001600160a01b0387811660208084018281528486018a8152336060870181815260006080890181815260a08a018e815260c08b018381528d84526037909852918b902099518a55945160018a0180546001600160a01b0319908116928b16929092179055935160028a01559051600389018054851691891691909117905592516004808901805490941691909716179091559051600586015590516006909401805460ff1916941515949094179093559251632142170760e11b815293945091926342842e0e92610c8e9291309189910161123c565b600060405180830381600087803b158015610ca857600080fd5b505af1158015610cbc573d6000803e3d6000fd5b5050603954604051636eb1769f60e11b8152336004820152306024820152600093506001600160a01b03909116915063dd62ed3e9060440160206040518083038186803b158015610d0c57600080fd5b505afa158015610d20573d6000803e3d6000fd5b505050506040513d601f19601f82011682018060405250810190610d449190611224565b9050603654811015610d945760405162461bcd60e51b8152602060048201526019602482015278436865636b2074686520746f6b656e20616c6c6f77616e636560381b60448201526064016105c6565b603954603a546036546040516323b872dd60e01b81526001600160a01b03938416936323b872dd93610dcf933393929091169160040161123c565b602060405180830381600087803b158015610de957600080fd5b505af1158015610dfd573d6000803e3d6000fd5b505050506040513d601f19601f82011682018060405250810190610e2191906111e1565b50604080513381526000602082018190528183018690526060820152905185916001600160a01b0388169185917f045dfa01dcba2b36aba1d3dc4a874f4b0c5d2fbeb8d2c4b34a7d88c8d8f929d1919081900360800190a4505060018055505050565b600054610100900460ff1680610e9d575060005460ff16155b610f005760405162461bcd60e51b815260206004820152602e60248201527f496e697469616c697a61626c653a20636f6e747261637420697320616c72656160448201526d191e481a5b9a5d1a585b1a5e995960921b60648201526084016105c6565b600054610100900460ff16158015610f22576000805461ffff19166101011790555b603580546001600160a01b031990811633908117909255670de0b6b3a7640000603655600060385560398054821673f740e266a17918c20ce2dd40eefad2b2f8dacb45179055603a805490911690911790558015610f86576000805461ff00191690555b5050565b60606000610f9760335490565b905060008060005b83811015610ffa573360376000610fb78460016112f4565b81526020810191909152604001600020600301546001600160a01b03161415610fe857610fe56001846112f4565b92505b80610ff281611323565b915050610f9f565b5060008267ffffffffffffffff81111561102457634e487b7160e01b600052604160045260246000fd5b60405190808252806020026020018201604052801561105d57816020015b61104a611171565b8152602001906001900390816110425790505b50905060005b8481101561038757336037600061107b8460016112f4565b81526020810191909152604001600020600301546001600160a01b0316141561115f5760006110ab8260016112f4565b600081815260376020908152604091829020825160e0810184528154815260018201546001600160a01b039081169382019390935260028201549381019390935260038101548216606084015260048101549091166080830152600581015460a0830152600681015460ff16151560c083015285519293509185908790811061114457634e487b7160e01b600052603260045260246000fd5b602090810291909101015261115a6001866112f4565b945050505b8061116981611323565b915050611063565b6040805160e081018252600080825260208201819052918101829052606081018290526080810182905260a0810182905260c081019190915290565b6000806000606084860312156111c1578283fd5b83356111cc81611354565b95602085013595506040909401359392505050565b6000602082840312156111f2578081fd5b81518015158114611201578182fd5b9392505050565b600060208284031215611219578081fd5b813561120181611354565b600060208284031215611235578081fd5b5051919050565b6001600160a01b039384168152919092166020820152604081019190915260600190565b602080825282518282018190526000919060409081850190868401855b828110156112e757815180518552868101516001600160a01b039081168887015286820151878701526060808301518216908701526080808301519091169086015260a0808201519086015260c09081015115159085015260e0909301929085019060010161127d565b5091979650505050505050565b600082198211156113075761130761133e565b500190565b60008282101561131e5761131e61133e565b500390565b60006000198214156113375761133761133e565b5060010190565b634e487b7160e01b600052601160045260246000fd5b6001600160a01b038116811461136957600080fd5b5056fea26469706673582212202bf00d887240c8888fef52f1631e51538af40811a8cf8c67ca4857c744b4aaad64736f6c63430008040033",
  "linkReferences": {},
  "deployedLinkReferences": {}
}