{
  "_format": "hh-sol-artifact-1",
  "contractName": "NFT",
  "sourceName": "contracts/NFT.sol",
  "abi": [
    {
      "anonymous": false,
      "inputs": [
        {
          "indexed": true,
          "internalType": "address",
          "name": "owner",
          "type": "address"
        },
        {
          "indexed": true,
          "internalType": "address",
          "name": "approved",
          "type": "address"
        },
        {
          "indexed": true,
          "internalType": "uint256",
          "name": "tokenId",
          "type": "uint256"
        }
      ],
      "name": "Approval",
      "type": "event"
    },
    {
      "anonymous": false,
      "inputs": [
        {
          "indexed": true,
          "internalType": "address",
          "name": "owner",
          "type": "address"
        },
        {
          "indexed": true,
          "internalType": "address",
          "name": "operator",
          "type": "address"
        },
        {
          "indexed": false,
          "internalType": "bool",
          "name": "approved",
          "type": "bool"
        }
      ],
      "name": "ApprovalForAll",
      "type": "event"
    },
    {
      "anonymous": false,
      "inputs": [
        {
          "indexed": true,
          "internalType": "address",
          "name": "from",
          "type": "address"
        },
        {
          "indexed": true,
          "internalType": "address",
          "name": "to",
          "type": "address"
        },
        {
          "indexed": true,
          "internalType": "uint256",
          "name": "tokenId",
          "type": "uint256"
        }
      ],
      "name": "Transfer",
      "type": "event"
    },
    {
      "inputs": [
        {
          "internalType": "address",
          "name": "to",
          "type": "address"
        },
        {
          "internalType": "uint256",
          "name": "tokenId",
          "type": "uint256"
        }
      ],
      "name": "approve",
      "outputs": [],
      "stateMutability": "nonpayable",
      "type": "function"
    },
    {
      "inputs": [
        {
          "internalType": "address",
          "name": "owner",
          "type": "address"
        }
      ],
      "name": "balanceOf",
      "outputs": [
        {
          "internalType": "uint256",
          "name": "",
          "type": "uint256"
        }
      ],
      "stateMutability": "view",
      "type": "function"
    },
    {
      "inputs": [
        {
          "internalType": "string",
          "name": "tokenURI",
          "type": "string"
        }
      ],
      "name": "createToken",
      "outputs": [
        {
          "internalType": "uint256",
          "name": "",
          "type": "uint256"
        }
      ],
      "stateMutability": "nonpayable",
      "type": "function"
    },
    {
      "inputs": [
        {
          "internalType": "uint256",
          "name": "tokenId",
          "type": "uint256"
        }
      ],
      "name": "getApproved",
      "outputs": [
        {
          "internalType": "address",
          "name": "",
          "type": "address"
        }
      ],
      "stateMutability": "view",
      "type": "function"
    },
    {
      "inputs": [
        {
          "internalType": "address",
          "name": "marketplaceAddress",
          "type": "address"
        }
      ],
      "name": "initialize",
      "outputs": [],
      "stateMutability": "nonpayable",
      "type": "function"
    },
    {
      "inputs": [
        {
          "internalType": "address",
          "name": "owner",
          "type": "address"
        },
        {
          "internalType": "address",
          "name": "operator",
          "type": "address"
        }
      ],
      "name": "isApprovedForAll",
      "outputs": [
        {
          "internalType": "bool",
          "name": "",
          "type": "bool"
        }
      ],
      "stateMutability": "view",
      "type": "function"
    },
    {
      "inputs": [],
      "name": "name",
      "outputs": [
        {
          "internalType": "string",
          "name": "",
          "type": "string"
        }
      ],
      "stateMutability": "view",
      "type": "function"
    },
    {
      "inputs": [
        {
          "internalType": "uint256",
          "name": "tokenId",
          "type": "uint256"
        }
      ],
      "name": "ownerOf",
      "outputs": [
        {
          "internalType": "address",
          "name": "",
          "type": "address"
        }
      ],
      "stateMutability": "view",
      "type": "function"
    },
    {
      "inputs": [
        {
          "internalType": "address",
          "name": "from",
          "type": "address"
        },
        {
          "internalType": "address",
          "name": "to",
          "type": "address"
        },
        {
          "internalType": "uint256",
          "name": "tokenId",
          "type": "uint256"
        }
      ],
      "name": "safeTransferFrom",
      "outputs": [],
      "stateMutability": "nonpayable",
      "type": "function"
    },
    {
      "inputs": [
        {
          "internalType": "address",
          "name": "from",
          "type": "address"
        },
        {
          "internalType": "address",
          "name": "to",
          "type": "address"
        },
        {
          "internalType": "uint256",
          "name": "tokenId",
          "type": "uint256"
        },
        {
          "internalType": "bytes",
          "name": "_data",
          "type": "bytes"
        }
      ],
      "name": "safeTransferFrom",
      "outputs": [],
      "stateMutability": "nonpayable",
      "type": "function"
    },
    {
      "inputs": [
        {
          "internalType": "address",
          "name": "operator",
          "type": "address"
        },
        {
          "internalType": "bool",
          "name": "approved",
          "type": "bool"
        }
      ],
      "name": "setApprovalForAll",
      "outputs": [],
      "stateMutability": "nonpayable",
      "type": "function"
    },
    {
      "inputs": [
        {
          "internalType": "uint256",
          "name": "itemId",
          "type": "uint256"
        },
        {
          "internalType": "string",
          "name": "tokenURI",
          "type": "string"
        }
      ],
      "name": "setUri",
      "outputs": [],
      "stateMutability": "nonpayable",
      "type": "function"
    },
    {
      "inputs": [
        {
          "internalType": "bytes4",
          "name": "interfaceId",
          "type": "bytes4"
        }
      ],
      "name": "supportsInterface",
      "outputs": [
        {
          "internalType": "bool",
          "name": "",
          "type": "bool"
        }
      ],
      "stateMutability": "view",
      "type": "function"
    },
    {
      "inputs": [],
      "name": "symbol",
      "outputs": [
        {
          "internalType": "string",
          "name": "",
          "type": "string"
        }
      ],
      "stateMutability": "view",
      "type": "function"
    },
    {
      "inputs": [
        {
          "internalType": "uint256",
          "name": "tokenId",
          "type": "uint256"
        }
      ],
      "name": "tokenURI",
      "outputs": [
        {
          "internalType": "string",
          "name": "",
          "type": "string"
        }
      ],
      "stateMutability": "view",
      "type": "function"
    },
    {
      "inputs": [
        {
          "internalType": "address",
          "name": "from",
          "type": "address"
        },
        {
          "internalType": "address",
          "name": "to",
          "type": "address"
        },
        {
          "internalType": "uint256",
          "name": "tokenId",
          "type": "uint256"
        }
      ],
      "name": "transferFrom",
      "outputs": [],
      "stateMutability": "nonpayable",
      "type": "function"
    }
  ],
  "bytecode": "0x608060405234801561001057600080fd5b50611a5c806100206000396000f3fe608060405234801561001057600080fd5b50600436106101005760003560e01c806370a0823111610097578063b88d4fde11610066578063b88d4fde1461021d578063c4d66de814610230578063c87b56dd14610243578063e985e9c51461025657600080fd5b806370a08231146101dc578063782f08ae146101ef57806395d89b4114610202578063a22cb4651461020a57600080fd5b806323b872dd116100d357806323b872dd1461018257806342842e0e1461019557806345576f94146101a85780636352211e146101c957600080fd5b806301ffc9a71461010557806306fdde031461012d578063081812fc14610142578063095ea7b31461016d575b600080fd5b610118610113366004611691565b610292565b60405190151581526020015b60405180910390f35b6101356102e4565b60405161012491906117f1565b6101556101503660046116fc565b610376565b6040516001600160a01b039091168152602001610124565b61018061017b366004611668565b610403565b005b61018061019036600461157a565b610519565b6101806101a336600461157a565b61054a565b6101bb6101b63660046116c9565b610565565b604051908152602001610124565b6101556101d73660046116fc565b6105ad565b6101bb6101ea36600461152e565b610624565b6101806101fd366004611714565b6106ab565b61013561070a565b61018061021836600461162e565b610719565b61018061022b3660046115b5565b6107de565b61018061023e36600461152e565b610816565b6101356102513660046116fc565b6108e4565b610118610264366004611548565b6001600160a01b039182166000908152606a6020908152604080832093909416825291909152205460ff1690565b60006001600160e01b031982166380ac58cd60e01b14806102c357506001600160e01b03198216635b5e139f60e01b145b806102de57506301ffc9a760e01b6001600160e01b03198316145b92915050565b6060606580546102f390611964565b80601f016020809104026020016040519081016040528092919081815260200182805461031f90611964565b801561036c5780601f106103415761010080835404028352916020019161036c565b820191906000526020600020905b81548152906001019060200180831161034f57829003601f168201915b5050505050905090565b600061038182610a5b565b6103e75760405162461bcd60e51b815260206004820152602c60248201527f4552433732313a20617070726f76656420717565727920666f72206e6f6e657860448201526b34b9ba32b73a103a37b5b2b760a11b60648201526084015b60405180910390fd5b506000908152606960205260409020546001600160a01b031690565b600061040e826105ad565b9050806001600160a01b0316836001600160a01b0316141561047c5760405162461bcd60e51b815260206004820152602160248201527f4552433732313a20617070726f76616c20746f2063757272656e74206f776e656044820152603960f91b60648201526084016103de565b336001600160a01b038216148061049857506104988133610264565b61050a5760405162461bcd60e51b815260206004820152603860248201527f4552433732313a20617070726f76652063616c6c6572206973206e6f74206f7760448201527f6e6572206e6f7220617070726f76656420666f7220616c6c000000000000000060648201526084016103de565b6105148383610a78565b505050565b6105233382610ae6565b61053f5760405162461bcd60e51b81526004016103de906118a4565b610514838383610bcc565b610514838383604051806020016040528060008152506107de565b600061057560c980546001019055565b600061058060c95490565b905061058c3382610d6c565b6105968184610e9f565b60ca546102de906001600160a01b03166001610719565b6000818152606760205260408120546001600160a01b0316806102de5760405162461bcd60e51b815260206004820152602960248201527f4552433732313a206f776e657220717565727920666f72206e6f6e657869737460448201526832b73a103a37b5b2b760b91b60648201526084016103de565b60006001600160a01b03821661068f5760405162461bcd60e51b815260206004820152602a60248201527f4552433732313a2062616c616e636520717565727920666f7220746865207a65604482015269726f206164647265737360b01b60648201526084016103de565b506001600160a01b031660009081526068602052604090205490565b60ca546001600160a01b031633146106fc5760405162461bcd60e51b81526020600482015260146024820152734974656d206973206e6f7420666f722073616c6560601b60448201526064016103de565b6107068282610e9f565b5050565b6060606680546102f390611964565b6001600160a01b0382163314156107725760405162461bcd60e51b815260206004820152601960248201527f4552433732313a20617070726f766520746f2063616c6c65720000000000000060448201526064016103de565b336000818152606a602090815260408083206001600160a01b03871680855290835292819020805460ff191686151590811790915590519081529192917f17307eab39ab6107e8899845ad3d59bd9653f200f220920489ca2b5937696c31910160405180910390a35050565b6107e83383610ae6565b6108045760405162461bcd60e51b81526004016103de906118a4565b61081084848484610f2a565b50505050565b600054610100900460ff168061082f575060005460ff16155b61084b5760405162461bcd60e51b81526004016103de90611856565b600054610100900460ff1615801561086d576000805461ffff19166101011790555b6108b4604051806040016040528060098152602001684d657461766572736560b81b815250604051806040016040528060048152602001631351551560e21b815250610f5d565b60ca80546001600160a01b0319166001600160a01b0384161790558015610706576000805461ff00191690555050565b60606108ef82610a5b565b6109555760405162461bcd60e51b815260206004820152603160248201527f45524337323155524953746f726167653a2055524920717565727920666f72206044820152703737b732bc34b9ba32b73a103a37b5b2b760791b60648201526084016103de565b6000828152609760205260408120805461096e90611964565b80601f016020809104026020016040519081016040528092919081815260200182805461099a90611964565b80156109e75780601f106109bc576101008083540402835291602001916109e7565b820191906000526020600020905b8154815290600101906020018083116109ca57829003601f168201915b505050505090506000610a0560408051602081019091526000815290565b9050805160001415610a18575092915050565b815115610a4a578082604051602001610a32929190611785565b60405160208183030381529060405292505050919050565b610a5384610fe4565b949350505050565b6000908152606760205260409020546001600160a01b0316151590565b600081815260696020526040902080546001600160a01b0319166001600160a01b0384169081179091558190610aad826105ad565b6001600160a01b03167f8c5be1e5ebec7d5bd14f71427d1e84f3dd0314c0f7b2291e5b200ac8c7c3b92560405160405180910390a45050565b6000610af182610a5b565b610b525760405162461bcd60e51b815260206004820152602c60248201527f4552433732313a206f70657261746f7220717565727920666f72206e6f6e657860448201526b34b9ba32b73a103a37b5b2b760a11b60648201526084016103de565b6000610b5d836105ad565b9050806001600160a01b0316846001600160a01b03161480610b985750836001600160a01b0316610b8d84610376565b6001600160a01b0316145b80610a5357506001600160a01b038082166000908152606a602090815260408083209388168352929052205460ff16610a53565b826001600160a01b0316610bdf826105ad565b6001600160a01b031614610c475760405162461bcd60e51b815260206004820152602960248201527f4552433732313a207472616e73666572206f6620746f6b656e2074686174206960448201526839903737ba1037bbb760b91b60648201526084016103de565b6001600160a01b038216610ca95760405162461bcd60e51b8152602060048201526024808201527f4552433732313a207472616e7366657220746f20746865207a65726f206164646044820152637265737360e01b60648201526084016103de565b610cb4600082610a78565b6001600160a01b0383166000908152606860205260408120805460019290610cdd908490611921565b90915550506001600160a01b0382166000908152606860205260408120805460019290610d0b9084906118f5565b909155505060008181526067602052604080822080546001600160a01b0319166001600160a01b0386811691821790925591518493918716917fddf252ad1be2c89b69c2b068fc378daa952ba7f163c4a11628f55a4df523b3ef91a4505050565b6001600160a01b038216610dc25760405162461bcd60e51b815260206004820181905260248201527f4552433732313a206d696e7420746f20746865207a65726f206164647265737360448201526064016103de565b610dcb81610a5b565b15610e185760405162461bcd60e51b815260206004820152601c60248201527f4552433732313a20746f6b656e20616c7265616479206d696e7465640000000060448201526064016103de565b6001600160a01b0382166000908152606860205260408120805460019290610e419084906118f5565b909155505060008181526067602052604080822080546001600160a01b0319166001600160a01b03861690811790915590518392907fddf252ad1be2c89b69c2b068fc378daa952ba7f163c4a11628f55a4df523b3ef908290a45050565b610ea882610a5b565b610f0b5760405162461bcd60e51b815260206004820152602e60248201527f45524337323155524953746f726167653a2055524920736574206f66206e6f6e60448201526d32bc34b9ba32b73a103a37b5b2b760911b60648201526084016103de565b60008281526097602090815260409091208251610514928401906113e4565b610f35848484610bcc565b610f41848484846110bc565b6108105760405162461bcd60e51b81526004016103de90611804565b600054610100900460ff1680610f76575060005460ff16155b610f925760405162461bcd60e51b81526004016103de90611856565b600054610100900460ff16158015610fb4576000805461ffff19166101011790555b610fbc6111c9565b610fc46111c9565b610fce8383611235565b8015610514576000805461ff0019169055505050565b6060610fef82610a5b565b6110535760405162461bcd60e51b815260206004820152602f60248201527f4552433732314d657461646174613a2055524920717565727920666f72206e6f60448201526e3732bc34b9ba32b73a103a37b5b2b760891b60648201526084016103de565b600061106a60408051602081019091526000815290565b9050600081511161108a57604051806020016040528060008152506110b5565b80611094846112ca565b6040516020016110a5929190611785565b6040516020818303038152906040525b9392505050565b60006001600160a01b0384163b156111be57604051630a85bd0160e11b81526001600160a01b0385169063150b7a02906111009033908990889088906004016117b4565b602060405180830381600087803b15801561111a57600080fd5b505af192505050801561114a575060408051601f3d908101601f19168201909252611147918101906116ad565b60015b6111a4573d808015611178576040519150601f19603f3d011682016040523d82523d6000602084013e61117d565b606091505b50805161119c5760405162461bcd60e51b81526004016103de90611804565b805181602001fd5b6001600160e01b031916630a85bd0160e11b149050610a53565b506001949350505050565b600054610100900460ff16806111e2575060005460ff16155b6111fe5760405162461bcd60e51b81526004016103de90611856565b600054610100900460ff16158015611220576000805461ffff19166101011790555b8015611232576000805461ff00191690555b50565b600054610100900460ff168061124e575060005460ff16155b61126a5760405162461bcd60e51b81526004016103de90611856565b600054610100900460ff1615801561128c576000805461ffff19166101011790555b825161129f9060659060208601906113e4565b5081516112b39060669060208501906113e4565b508015610514576000805461ff0019169055505050565b6060816112ee5750506040805180820190915260018152600360fc1b602082015290565b8160005b811561131857806113028161199f565b91506113119050600a8361190d565b91506112f2565b60008167ffffffffffffffff81111561134157634e487b7160e01b600052604160045260246000fd5b6040519080825280601f01601f19166020018201604052801561136b576020820181803683370190505b5090505b8415610a5357611380600183611921565b915061138d600a866119ba565b6113989060306118f5565b60f81b8183815181106113bb57634e487b7160e01b600052603260045260246000fd5b60200101906001600160f81b031916908160001a9053506113dd600a8661190d565b945061136f565b8280546113f090611964565b90600052602060002090601f0160209004810192826114125760008555611458565b82601f1061142b57805160ff1916838001178555611458565b82800160010185558215611458579182015b8281111561145857825182559160200191906001019061143d565b50611464929150611468565b5090565b5b808211156114645760008155600101611469565b600067ffffffffffffffff80841115611498576114986119fa565b604051601f8501601f19908116603f011681019082821181831017156114c0576114c06119fa565b816040528093508581528686860111156114d957600080fd5b858560208301376000602087830101525050509392505050565b80356001600160a01b038116811461150a57600080fd5b919050565b600082601f83011261151f578081fd5b6110b58383356020850161147d565b60006020828403121561153f578081fd5b6110b5826114f3565b6000806040838503121561155a578081fd5b611563836114f3565b9150611571602084016114f3565b90509250929050565b60008060006060848603121561158e578081fd5b611597846114f3565b92506115a5602085016114f3565b9150604084013590509250925092565b600080600080608085870312156115ca578081fd5b6115d3856114f3565b93506115e1602086016114f3565b925060408501359150606085013567ffffffffffffffff811115611603578182fd5b8501601f81018713611613578182fd5b6116228782356020840161147d565b91505092959194509250565b60008060408385031215611640578182fd5b611649836114f3565b91506020830135801515811461165d578182fd5b809150509250929050565b6000806040838503121561167a578182fd5b611683836114f3565b946020939093013593505050565b6000602082840312156116a2578081fd5b81356110b581611a10565b6000602082840312156116be578081fd5b81516110b581611a10565b6000602082840312156116da578081fd5b813567ffffffffffffffff8111156116f0578182fd5b610a538482850161150f565b60006020828403121561170d578081fd5b5035919050565b60008060408385031215611726578182fd5b82359150602083013567ffffffffffffffff811115611743578182fd5b61174f8582860161150f565b9150509250929050565b60008151808452611771816020860160208601611938565b601f01601f19169290920160200192915050565b60008351611797818460208801611938565b8351908301906117ab818360208801611938565b01949350505050565b6001600160a01b03858116825284166020820152604081018390526080606082018190526000906117e790830184611759565b9695505050505050565b6020815260006110b56020830184611759565b60208082526032908201527f4552433732313a207472616e7366657220746f206e6f6e20455243373231526560408201527131b2b4bb32b91034b6b83632b6b2b73a32b960711b606082015260800190565b6020808252602e908201527f496e697469616c697a61626c653a20636f6e747261637420697320616c72656160408201526d191e481a5b9a5d1a585b1a5e995960921b606082015260800190565b60208082526031908201527f4552433732313a207472616e736665722063616c6c6572206973206e6f74206f6040820152701ddb995c881b9bdc88185c1c1c9bdd9959607a1b606082015260800190565b60008219821115611908576119086119ce565b500190565b60008261191c5761191c6119e4565b500490565b600082821015611933576119336119ce565b500390565b60005b8381101561195357818101518382015260200161193b565b838111156108105750506000910152565b600181811c9082168061197857607f821691505b6020821081141561199957634e487b7160e01b600052602260045260246000fd5b50919050565b60006000198214156119b3576119b36119ce565b5060010190565b6000826119c9576119c96119e4565b500690565b634e487b7160e01b600052601160045260246000fd5b634e487b7160e01b600052601260045260246000fd5b634e487b7160e01b600052604160045260246000fd5b6001600160e01b03198116811461123257600080fdfea264697066735822122076f941de20c5cf2ffeebc19392b61df12250eb66a45114463e9c369161d180a564736f6c63430008040033",
  "linkReferences": {},
  "deployedLinkReferences": {}
}