{
  "_format": "hh-sol-artifact-1",
  "contractName": "NFT",
  "sourceName": "contracts/NFT.sol",
  "abi": [
    {
      "anonymous": false,
      "inputs": [
        {
          "indexed": true,
          "internalType": "address",
          "name": "owner",
          "type": "address"
        },
        {
          "indexed": true,
          "internalType": "address",
          "name": "approved",
          "type": "address"
        },
        {
          "indexed": true,
          "internalType": "uint256",
          "name": "tokenId",
          "type": "uint256"
        }
      ],
      "name": "Approval",
      "type": "event"
    },
    {
      "anonymous": false,
      "inputs": [
        {
          "indexed": true,
          "internalType": "address",
          "name": "owner",
          "type": "address"
        },
        {
          "indexed": true,
          "internalType": "address",
          "name": "operator",
          "type": "address"
        },
        {
          "indexed": false,
          "internalType": "bool",
          "name": "approved",
          "type": "bool"
        }
      ],
      "name": "ApprovalForAll",
      "type": "event"
    },
    {
      "anonymous": false,
      "inputs": [
        {
          "indexed": true,
          "internalType": "address",
          "name": "from",
          "type": "address"
        },
        {
          "indexed": true,
          "internalType": "address",
          "name": "to",
          "type": "address"
        },
        {
          "indexed": true,
          "internalType": "uint256",
          "name": "tokenId",
          "type": "uint256"
        }
      ],
      "name": "Transfer",
      "type": "event"
    },
    {
      "inputs": [
        {
          "internalType": "address",
          "name": "to",
          "type": "address"
        },
        {
          "internalType": "uint256",
          "name": "tokenId",
          "type": "uint256"
        }
      ],
      "name": "approve",
      "outputs": [],
      "stateMutability": "nonpayable",
      "type": "function"
    },
    {
      "inputs": [
        {
          "internalType": "address",
          "name": "owner",
          "type": "address"
        }
      ],
      "name": "balanceOf",
      "outputs": [
        {
          "internalType": "uint256",
          "name": "",
          "type": "uint256"
        }
      ],
      "stateMutability": "view",
      "type": "function"
    },
    {
      "inputs": [
        {
          "internalType": "string",
          "name": "tokenURI",
          "type": "string"
        }
      ],
      "name": "createToken",
      "outputs": [
        {
          "internalType": "uint256",
          "name": "",
          "type": "uint256"
        }
      ],
      "stateMutability": "nonpayable",
      "type": "function"
    },
    {
      "inputs": [
        {
          "internalType": "uint256",
          "name": "tokenId",
          "type": "uint256"
        }
      ],
      "name": "getApproved",
      "outputs": [
        {
          "internalType": "address",
          "name": "",
          "type": "address"
        }
      ],
      "stateMutability": "view",
      "type": "function"
    },
    {
      "inputs": [
        {
          "internalType": "address",
          "name": "marketplaceAddress",
          "type": "address"
        }
      ],
      "name": "initialize",
      "outputs": [],
      "stateMutability": "nonpayable",
      "type": "function"
    },
    {
      "inputs": [
        {
          "internalType": "address",
          "name": "owner",
          "type": "address"
        },
        {
          "internalType": "address",
          "name": "operator",
          "type": "address"
        }
      ],
      "name": "isApprovedForAll",
      "outputs": [
        {
          "internalType": "bool",
          "name": "",
          "type": "bool"
        }
      ],
      "stateMutability": "view",
      "type": "function"
    },
    {
      "inputs": [],
      "name": "name",
      "outputs": [
        {
          "internalType": "string",
          "name": "",
          "type": "string"
        }
      ],
      "stateMutability": "view",
      "type": "function"
    },
    {
      "inputs": [
        {
          "internalType": "uint256",
          "name": "tokenId",
          "type": "uint256"
        }
      ],
      "name": "ownerOf",
      "outputs": [
        {
          "internalType": "address",
          "name": "",
          "type": "address"
        }
      ],
      "stateMutability": "view",
      "type": "function"
    },
    {
      "inputs": [
        {
          "internalType": "address",
          "name": "from",
          "type": "address"
        },
        {
          "internalType": "address",
          "name": "to",
          "type": "address"
        },
        {
          "internalType": "uint256",
          "name": "tokenId",
          "type": "uint256"
        }
      ],
      "name": "safeTransferFrom",
      "outputs": [],
      "stateMutability": "nonpayable",
      "type": "function"
    },
    {
      "inputs": [
        {
          "internalType": "address",
          "name": "from",
          "type": "address"
        },
        {
          "internalType": "address",
          "name": "to",
          "type": "address"
        },
        {
          "internalType": "uint256",
          "name": "tokenId",
          "type": "uint256"
        },
        {
          "internalType": "bytes",
          "name": "_data",
          "type": "bytes"
        }
      ],
      "name": "safeTransferFrom",
      "outputs": [],
      "stateMutability": "nonpayable",
      "type": "function"
    },
    {
      "inputs": [
        {
          "internalType": "address",
          "name": "operator",
          "type": "address"
        },
        {
          "internalType": "bool",
          "name": "approved",
          "type": "bool"
        }
      ],
      "name": "setApprovalForAll",
      "outputs": [],
      "stateMutability": "nonpayable",
      "type": "function"
    },
    {
      "inputs": [
        {
          "internalType": "bytes4",
          "name": "interfaceId",
          "type": "bytes4"
        }
      ],
      "name": "supportsInterface",
      "outputs": [
        {
          "internalType": "bool",
          "name": "",
          "type": "bool"
        }
      ],
      "stateMutability": "view",
      "type": "function"
    },
    {
      "inputs": [],
      "name": "symbol",
      "outputs": [
        {
          "internalType": "string",
          "name": "",
          "type": "string"
        }
      ],
      "stateMutability": "view",
      "type": "function"
    },
    {
      "inputs": [
        {
          "internalType": "uint256",
          "name": "tokenId",
          "type": "uint256"
        }
      ],
      "name": "tokenURI",
      "outputs": [
        {
          "internalType": "string",
          "name": "",
          "type": "string"
        }
      ],
      "stateMutability": "view",
      "type": "function"
    },
    {
      "inputs": [
        {
          "internalType": "address",
          "name": "from",
          "type": "address"
        },
        {
          "internalType": "address",
          "name": "to",
          "type": "address"
        },
        {
          "internalType": "uint256",
          "name": "tokenId",
          "type": "uint256"
        }
      ],
      "name": "transferFrom",
      "outputs": [],
      "stateMutability": "nonpayable",
      "type": "function"
    }
  ],
  "bytecode": "0x608060405234801561001057600080fd5b5061198f806100206000396000f3fe608060405234801561001057600080fd5b50600436106100f55760003560e01c80636352211e11610097578063b88d4fde11610066578063b88d4fde146101ff578063c4d66de814610212578063c87b56dd14610225578063e985e9c51461023857600080fd5b80636352211e146101be57806370a08231146101d157806395d89b41146101e4578063a22cb465146101ec57600080fd5b8063095ea7b3116100d3578063095ea7b31461016257806323b872dd1461017757806342842e0e1461018a57806345576f941461019d57600080fd5b806301ffc9a7146100fa57806306fdde0314610122578063081812fc14610137575b600080fd5b61010d6101083660046115f6565b610274565b60405190151581526020015b60405180910390f35b61012a6102c6565b6040516101199190611724565b61014a610145366004611674565b610358565b6040516001600160a01b039091168152602001610119565b6101756101703660046115cd565b6103e5565b005b6101756101853660046114df565b6104fb565b6101756101983660046114df565b61052c565b6101b06101ab36600461162e565b610547565b604051908152602001610119565b61014a6101cc366004611674565b61058f565b6101b06101df366004611493565b610606565b61012a61068d565b6101756101fa366004611593565b61069c565b61017561020d36600461151a565b610761565b610175610220366004611493565b610799565b61012a610233366004611674565b610868565b61010d6102463660046114ad565b6001600160a01b039182166000908152606a6020908152604080832093909416825291909152205460ff1690565b60006001600160e01b031982166380ac58cd60e01b14806102a557506001600160e01b03198216635b5e139f60e01b145b806102c057506301ffc9a760e01b6001600160e01b03198316145b92915050565b6060606580546102d590611897565b80601f016020809104026020016040519081016040528092919081815260200182805461030190611897565b801561034e5780601f106103235761010080835404028352916020019161034e565b820191906000526020600020905b81548152906001019060200180831161033157829003601f168201915b5050505050905090565b6000610363826109df565b6103c95760405162461bcd60e51b815260206004820152602c60248201527f4552433732313a20617070726f76656420717565727920666f72206e6f6e657860448201526b34b9ba32b73a103a37b5b2b760a11b60648201526084015b60405180910390fd5b506000908152606960205260409020546001600160a01b031690565b60006103f08261058f565b9050806001600160a01b0316836001600160a01b0316141561045e5760405162461bcd60e51b815260206004820152602160248201527f4552433732313a20617070726f76616c20746f2063757272656e74206f776e656044820152603960f91b60648201526084016103c0565b336001600160a01b038216148061047a575061047a8133610246565b6104ec5760405162461bcd60e51b815260206004820152603860248201527f4552433732313a20617070726f76652063616c6c6572206973206e6f74206f7760448201527f6e6572206e6f7220617070726f76656420666f7220616c6c000000000000000060648201526084016103c0565b6104f683836109fc565b505050565b6105053382610a6a565b6105215760405162461bcd60e51b81526004016103c0906117d7565b6104f6838383610b50565b6104f683838360405180602001604052806000815250610761565b600061055760c980546001019055565b600061056260c95490565b905061056e3382610cf0565b6105788184610e23565b60ca546102c0906001600160a01b0316600161069c565b6000818152606760205260408120546001600160a01b0316806102c05760405162461bcd60e51b815260206004820152602960248201527f4552433732313a206f776e657220717565727920666f72206e6f6e657869737460448201526832b73a103a37b5b2b760b91b60648201526084016103c0565b60006001600160a01b0382166106715760405162461bcd60e51b815260206004820152602a60248201527f4552433732313a2062616c616e636520717565727920666f7220746865207a65604482015269726f206164647265737360b01b60648201526084016103c0565b506001600160a01b031660009081526068602052604090205490565b6060606680546102d590611897565b6001600160a01b0382163314156106f55760405162461bcd60e51b815260206004820152601960248201527f4552433732313a20617070726f766520746f2063616c6c65720000000000000060448201526064016103c0565b336000818152606a602090815260408083206001600160a01b03871680855290835292819020805460ff191686151590811790915590519081529192917f17307eab39ab6107e8899845ad3d59bd9653f200f220920489ca2b5937696c31910160405180910390a35050565b61076b3383610a6a565b6107875760405162461bcd60e51b81526004016103c0906117d7565b61079384848484610eae565b50505050565b600054610100900460ff16806107b2575060005460ff16155b6107ce5760405162461bcd60e51b81526004016103c090611789565b600054610100900460ff161580156107f0576000805461ffff19166101011790555b610837604051806040016040528060098152602001684d657461766572736560b81b815250604051806040016040528060048152602001631351551560e21b815250610ee1565b60ca80546001600160a01b0319166001600160a01b0384161790558015610864576000805461ff00191690555b5050565b6060610873826109df565b6108d95760405162461bcd60e51b815260206004820152603160248201527f45524337323155524953746f726167653a2055524920717565727920666f72206044820152703737b732bc34b9ba32b73a103a37b5b2b760791b60648201526084016103c0565b600082815260976020526040812080546108f290611897565b80601f016020809104026020016040519081016040528092919081815260200182805461091e90611897565b801561096b5780601f106109405761010080835404028352916020019161096b565b820191906000526020600020905b81548152906001019060200180831161094e57829003601f168201915b50505050509050600061098960408051602081019091526000815290565b905080516000141561099c575092915050565b8151156109ce5780826040516020016109b69291906116b8565b60405160208183030381529060405292505050919050565b6109d784610f68565b949350505050565b6000908152606760205260409020546001600160a01b0316151590565b600081815260696020526040902080546001600160a01b0319166001600160a01b0384169081179091558190610a318261058f565b6001600160a01b03167f8c5be1e5ebec7d5bd14f71427d1e84f3dd0314c0f7b2291e5b200ac8c7c3b92560405160405180910390a45050565b6000610a75826109df565b610ad65760405162461bcd60e51b815260206004820152602c60248201527f4552433732313a206f70657261746f7220717565727920666f72206e6f6e657860448201526b34b9ba32b73a103a37b5b2b760a11b60648201526084016103c0565b6000610ae18361058f565b9050806001600160a01b0316846001600160a01b03161480610b1c5750836001600160a01b0316610b1184610358565b6001600160a01b0316145b806109d757506001600160a01b038082166000908152606a602090815260408083209388168352929052205460ff166109d7565b826001600160a01b0316610b638261058f565b6001600160a01b031614610bcb5760405162461bcd60e51b815260206004820152602960248201527f4552433732313a207472616e73666572206f6620746f6b656e2074686174206960448201526839903737ba1037bbb760b91b60648201526084016103c0565b6001600160a01b038216610c2d5760405162461bcd60e51b8152602060048201526024808201527f4552433732313a207472616e7366657220746f20746865207a65726f206164646044820152637265737360e01b60648201526084016103c0565b610c386000826109fc565b6001600160a01b0383166000908152606860205260408120805460019290610c61908490611854565b90915550506001600160a01b0382166000908152606860205260408120805460019290610c8f908490611828565b909155505060008181526067602052604080822080546001600160a01b0319166001600160a01b0386811691821790925591518493918716917fddf252ad1be2c89b69c2b068fc378daa952ba7f163c4a11628f55a4df523b3ef91a4505050565b6001600160a01b038216610d465760405162461bcd60e51b815260206004820181905260248201527f4552433732313a206d696e7420746f20746865207a65726f206164647265737360448201526064016103c0565b610d4f816109df565b15610d9c5760405162461bcd60e51b815260206004820152601c60248201527f4552433732313a20746f6b656e20616c7265616479206d696e7465640000000060448201526064016103c0565b6001600160a01b0382166000908152606860205260408120805460019290610dc5908490611828565b909155505060008181526067602052604080822080546001600160a01b0319166001600160a01b03861690811790915590518392907fddf252ad1be2c89b69c2b068fc378daa952ba7f163c4a11628f55a4df523b3ef908290a45050565b610e2c826109df565b610e8f5760405162461bcd60e51b815260206004820152602e60248201527f45524337323155524953746f726167653a2055524920736574206f66206e6f6e60448201526d32bc34b9ba32b73a103a37b5b2b760911b60648201526084016103c0565b600082815260976020908152604090912082516104f692840190611368565b610eb9848484610b50565b610ec584848484611040565b6107935760405162461bcd60e51b81526004016103c090611737565b600054610100900460ff1680610efa575060005460ff16155b610f165760405162461bcd60e51b81526004016103c090611789565b600054610100900460ff16158015610f38576000805461ffff19166101011790555b610f4061114d565b610f4861114d565b610f5283836111b9565b80156104f6576000805461ff0019169055505050565b6060610f73826109df565b610fd75760405162461bcd60e51b815260206004820152602f60248201527f4552433732314d657461646174613a2055524920717565727920666f72206e6f60448201526e3732bc34b9ba32b73a103a37b5b2b760891b60648201526084016103c0565b6000610fee60408051602081019091526000815290565b9050600081511161100e5760405180602001604052806000815250611039565b806110188461124e565b6040516020016110299291906116b8565b6040516020818303038152906040525b9392505050565b60006001600160a01b0384163b1561114257604051630a85bd0160e11b81526001600160a01b0385169063150b7a02906110849033908990889088906004016116e7565b602060405180830381600087803b15801561109e57600080fd5b505af19250505080156110ce575060408051601f3d908101601f191682019092526110cb91810190611612565b60015b611128573d8080156110fc576040519150601f19603f3d011682016040523d82523d6000602084013e611101565b606091505b5080516111205760405162461bcd60e51b81526004016103c090611737565b805181602001fd5b6001600160e01b031916630a85bd0160e11b1490506109d7565b506001949350505050565b600054610100900460ff1680611166575060005460ff16155b6111825760405162461bcd60e51b81526004016103c090611789565b600054610100900460ff161580156111a4576000805461ffff19166101011790555b80156111b6576000805461ff00191690555b50565b600054610100900460ff16806111d2575060005460ff16155b6111ee5760405162461bcd60e51b81526004016103c090611789565b600054610100900460ff16158015611210576000805461ffff19166101011790555b8251611223906065906020860190611368565b508151611237906066906020850190611368565b5080156104f6576000805461ff0019169055505050565b6060816112725750506040805180820190915260018152600360fc1b602082015290565b8160005b811561129c5780611286816118d2565b91506112959050600a83611840565b9150611276565b60008167ffffffffffffffff8111156112c557634e487b7160e01b600052604160045260246000fd5b6040519080825280601f01601f1916602001820160405280156112ef576020820181803683370190505b5090505b84156109d757611304600183611854565b9150611311600a866118ed565b61131c906030611828565b60f81b81838151811061133f57634e487b7160e01b600052603260045260246000fd5b60200101906001600160f81b031916908160001a905350611361600a86611840565b94506112f3565b82805461137490611897565b90600052602060002090601f01602090048101928261139657600085556113dc565b82601f106113af57805160ff19168380011785556113dc565b828001600101855582156113dc579182015b828111156113dc5782518255916020019190600101906113c1565b506113e89291506113ec565b5090565b5b808211156113e857600081556001016113ed565b600067ffffffffffffffff8084111561141c5761141c61192d565b604051601f8501601f19908116603f011681019082821181831017156114445761144461192d565b8160405280935085815286868601111561145d57600080fd5b858560208301376000602087830101525050509392505050565b80356001600160a01b038116811461148e57600080fd5b919050565b6000602082840312156114a4578081fd5b61103982611477565b600080604083850312156114bf578081fd5b6114c883611477565b91506114d660208401611477565b90509250929050565b6000806000606084860312156114f3578081fd5b6114fc84611477565b925061150a60208501611477565b9150604084013590509250925092565b6000806000806080858703121561152f578081fd5b61153885611477565b935061154660208601611477565b925060408501359150606085013567ffffffffffffffff811115611568578182fd5b8501601f81018713611578578182fd5b61158787823560208401611401565b91505092959194509250565b600080604083850312156115a5578182fd5b6115ae83611477565b9150602083013580151581146115c2578182fd5b809150509250929050565b600080604083850312156115df578182fd5b6115e883611477565b946020939093013593505050565b600060208284031215611607578081fd5b813561103981611943565b600060208284031215611623578081fd5b815161103981611943565b60006020828403121561163f578081fd5b813567ffffffffffffffff811115611655578182fd5b8201601f81018413611665578182fd5b6109d784823560208401611401565b600060208284031215611685578081fd5b5035919050565b600081518084526116a481602086016020860161186b565b601f01601f19169290920160200192915050565b600083516116ca81846020880161186b565b8351908301906116de81836020880161186b565b01949350505050565b6001600160a01b038581168252841660208201526040810183905260806060820181905260009061171a9083018461168c565b9695505050505050565b602081526000611039602083018461168c565b60208082526032908201527f4552433732313a207472616e7366657220746f206e6f6e20455243373231526560408201527131b2b4bb32b91034b6b83632b6b2b73a32b960711b606082015260800190565b6020808252602e908201527f496e697469616c697a61626c653a20636f6e747261637420697320616c72656160408201526d191e481a5b9a5d1a585b1a5e995960921b606082015260800190565b60208082526031908201527f4552433732313a207472616e736665722063616c6c6572206973206e6f74206f6040820152701ddb995c881b9bdc88185c1c1c9bdd9959607a1b606082015260800190565b6000821982111561183b5761183b611901565b500190565b60008261184f5761184f611917565b500490565b60008282101561186657611866611901565b500390565b60005b8381101561188657818101518382015260200161186e565b838111156107935750506000910152565b600181811c908216806118ab57607f821691505b602082108114156118cc57634e487b7160e01b600052602260045260246000fd5b50919050565b60006000198214156118e6576118e6611901565b5060010190565b6000826118fc576118fc611917565b500690565b634e487b7160e01b600052601160045260246000fd5b634e487b7160e01b600052601260045260246000fd5b634e487b7160e01b600052604160045260246000fd5b6001600160e01b0319811681146111b657600080fdfea26469706673582212207a1c0084309aad1617a97a9e67470062ba6edd2360168533730875c1981d38e464736f6c63430008040033",
  "linkReferences": {},
  "deployedLinkReferences": {}
}